:4000000000800020110000005DFB00005DFB000008B5044B1A6803F53F5302331A600FF0C3FD00BFFA46004010B5054C237833B9044B13B10448AFF300800123237010BDF8
:40004000A089FF1F0000000080B40100084B10B51BB108490848AFF300800848036803B910BD074B002BFBD0BDE81040184700BF00000000A489FF1F80B40100C880FF1FD8
:400080000000000010B58C6811F0BEFC00232374FF226274A37410BD2DE9F04F8BB00C468D680023069307930893099301238DF818309A4240F3BD808046164691F91030AA
:4000C000042B40F0B8808F6991F92030042B40F0B4808B6A01931301CA18CB56062B09D1D2F808907B480AF0F5FB814505D14FF0010904E04FF0000901E04FF00009A6F179
:40010000020AC9EB0A0A6B7C9F4201D1022300E000232A7C032A08BF43F0010302222A745FFA87FB85F811B0012B00F0888093420ED0CBB911F068FCBAF1000FCCBF002157
:400140000121584611F05AFB074600287DD10CE0BAF1000FCCBF00210121584611F08EFB0746002873D100E00027BAF1000F0FDC1EE04FEA0A13E218E356042B60D1107A34
:4001800011F0CEFB0746002863D10AF1010A01E04FF0030AC9EB06039A45EADD019B002B64DD0121584611F069FB0746002852D103232B74019B581C02F022FD0646002817
:4001C0004AD089F0010A019BCAEB030A83460BE00BF101030093012011F0CEFB8BF800000AF1FF3ADDF800B0BAF1000FF0DCB9F1000F0AD1019B002B07DD0BF1010A0020A9
:4002000011F0BAFB8BF80000D34600238BF80030019B3246414606A807F07EFAB9F1000F24D111F061FB074600232B74FF236B741CE0002704E0002702E0002700E0002785
:40024000254808F01BFF002606E0002604E0002602E0002600E0002611F046FB00232B74FF236B7416B1304602F024FEAF7402AD0AAB13E90F0085E80F0094F90030072B62
:4002800020DDA268538833B9144B154A40F22111144813F087FB4FF6FF718B4206D1124B0F4A4FF491710F4813F07CFB013B9BB253803BB994F90030083B0C4A52F8233005
:4002C0002046984702AB0FCB84E80F000BB0BDE8F08F00BF9CB40100A4B40100C0B4010090B40100D8B40100E8B401001CD8020030B585B00C4603238A680146684608F024
:40030000D3F99DE80F0084E80F0000231374FF215174937405B030BD70B50C468E6811F057FB0546B07494F90030072B20DDA268538833B9104B114A40F22111104813F049
:4003400031FB4FF6FF718B4206D10E4B0B4A4FF491710B4813F026FB013B9BB253803BB994F90030083B084A52F823302046984704232370A56070BDC0B4010090B4010064
:40038000D8B40100E8B401001CD802002DE9F84F0C46D1F80880B2F1000978DD91F91030042B76D18D694FEA0913CA18CB56062B08D1966854480AF08DFA864205D14FF08C
:4003C000010A04E04FF0000A01E04FF0000AB9F1010F08DD94F920300B2B04D1A36AB3F804909F6804E0CAEB090909F1FF39002798F811309D4201D1022300E0002398F883
:400400001020042A08BF43F00103042288F81020EDB288F81150012B3DD0022B0CD043B911F0F2FA0021284611F0E8F90546B0BB00E0002500261BE00021284611F01EFAEA
:40044000054660BBF6E73FB107F1010B387811F067FA05465F4609E0B31C1B01E218E356042B19D1107A11F05BFA0546BDB90136B145E8DCBAF1000F19D111F035FA054672
:40048000002388F81030FF2388F811300FE0002502E0002500E000251C4808F0EFFD11F023FA002388F81030FF2388F8113088F8125094F90030072B20DDA268538833B98B
:4004C000134B144A40F22111134813F06BFA4FF6FF718B4206D1114B0E4A4FF491710E4813F060FA013B9BB253803BB994F90030083B0B4A52F823302046984704232370D3
:40050000A560BDE8F88F00BF9CB4010004B50100C0B4010090B40100D8B40100E8B401001CD8020038B5044610F0ECFF124B1A681249204608F032F80546114B114A0146B9
:40054000204608F095F8104B104A2946204608F08FF80F4B0F4A2946204608F089F80E4B0E4A2946204608F083F80D4B0D4A2946204608F07DF838BDFC14002024B501009D
:40058000F102000028B5010099000000D4B502008D0300002CB501001903000034B50100850000003CB5010008B5024801F092F908BD00BF4C13002008B5024801F08AF956
:4005C00008BD00BF0014002008B5024801F0AAF908BD00BF4C13002008B5024801F0A2F908BD00BF0014002008B58B68186901F00BFA08BD08B58B68186901F0FFF908BD8F
:4006000070B584B00C462AB191F91030042B1ED18B6900E000233BB9214B1D68012D16DC6B1C1F4A136002E05D1E012D0FDC0423A2680146684608F037F89DE80F0084E82A
:400640000F00184BB42101FB0533136126E094F90030072B20DDA268538833B9124B134A40F22111124813F09DF94FF6FF718B4206D1104B0D4A4FF491710D4813F092F984
:40068000013B9BB253803BB994F90030083B0A4A52F82330204698470123237004B070BDBC89FF1F4C130020C0B401004CB50100D8B40100E8B401001CD802002DE9F0415C
:4006C00088B080460C468B681E698D69304601F0F7F940B90023049305930693079301238DF8103011E0854200DB0546681C02F087FA07462A460146304601F0B9F92B4619
:400700003A46414604A807F007F808AB13E90F008DE80F0094F90030072B20DDA268538833B9124B124A40F22111124813F03AF94FF6FF718B4206D10F4B0D4A4FF4917115
:400740000C4813F02FF9013B9BB253803BB994F90030083B094A52F82330204698479DE80F0084E80F0008B0BDE8F081C0B401004CB50100D8B40100E8B401001CD8020001
:400780002DE9F04188B00C468B681D698E69AB7A3BB124212B4808F0F1F9284601F034F917E00746284601F08BF9864211DC701C02F026FA804660B132460146284601F052
:4007C00057F9031E05DB4246394604A806F0A4FF07E00023049305930693079301238DF8103008AB13E90F008DE80F0094F90030072B20DDA268538833B9134B134A40F21B
:400800002111134813F0CEF84FF6FF718B4206D1104B0E4A4FF491710D4813F0C3F8013B9BB253803BB994F90030083B0A4A52F82330204698479DE80F0084E80F0008B0B1
:40084000BDE8F08158B50100C0B401004CB50100D8B40100E8B401001CD802002DE9F04188B007460C468B681E69304601F038F900284AD00546002807DA2421384808F03A
:400880007DF9304601F0C0F83FE0013002F0B8F98046002839D02A460146304601F0E8F804AE2B4642463946304606F035FF96E80F008DE80F0094F90030072B20DDA268EA
:4008C000538833B9274B284A40F22111274813F069F84FF6FF718B4206D1254B224A4FF49171224813F05EF8013B9BB253803BB994F90030083B1F4A52F82330204698473E
:400900009DE80F0084E80F0026E094F90030072B20DDA268538833B9124B134A40F22111124813F03FF84FF6FF718B4206D1104B0D4A4FF491710D4813F034F8013B9BB2D6
:4009400053803BB994F90030083B0A4A52F82330204698470123237008B0BDE8F08100BF58B50100C0B401004CB50100D8B40100E8B401001CD8020038B50C468B681869DE
:4009800091F910300B2B2ED18B699A88996801F049F8054694F90030072B20DDA268538833B9254B254A40F22111254812F0FAFF4FF6FF718B4206D1224B204A4FF49171C7
:4009C0001F4812F0EFFF013B9BB253803BB994F90030083B1C4A52F823302046984704232370A56038BD91F90030072B20DD8A68538833B9104B114A40F22111104812F03E
:400A0000D1FF4FF6FF718B4206D10E4B0B4A4FF491710B4812F0C6FF013B9BB253803BB994F90030083B084A52F82330204698470123237038BD00BFC0B401004CB501001A
:400A4000D8B40100E8B401001CD8020030B589B0374C384B0693384B0593384B0493384B0393384B0293384B0193384B0093384B20220221204600F08FFF364811F092F831
:400A8000354811F0B7F8354B0693354B0593354B0493354B0393354B0293354B0193354B0093354B2022022104F1B40000F074FF324811F09DF9324811F0C6F9314B1A6835
:400AC0003149002007F06AFD0446304B304A0146002007F0CDFD2F4B2F4A2146002007F0C7FD2E4B2E4A2146002007F0C1FD2D4D2B462D4A2146002007F0BAFD2B4B2C4AB2
:400B00002146002007F0B4FD2B462A4A2146002007F0AEFD284B294A2146002007F0A8FD274B284A2146002007F0A2FD09B030BD4C130020E51A0100251B0100F11A0100FC
:400B4000391B0100011B0100451B0100A91A01008D1A0100A9050000C9050000311D0100711D01003D1D0100851D01004D1D0100911D0100F51C0100D91C0100B9050000FE
:400B8000D9050000FC14002080B501000106000028B5010081070000D4B50200BD06000088B50100790900002CB501005D08000098B5010008B60200F5050000A0B50100D1
:400BC000E9050000B0B5010010B501F00F0408B144F02004204610F047FB002011F080FE44F0100010F040FB012011F079FE204610F03AFB012011F073FE10BD38B5054635
:400C00000C460909FFF7E0FF04F00F012846FFF7DBFF352011F064FE38BD00BF08B501210020FFF7EBFF4FF4BE6011F059FE024B00221A705A7008BDC089FF1F08B5C3B214
:400C4000084A1370C9B25170032B0AD8132908D8054B1B5C194461F07F01C9B20020FFF7CDFF08BDC089FF1FC0B501000E4B1B78032B18D80C4B5B78132B14D870B5C3F10C
:400C800014068E4200DB0E463344074A5370002406E0451C01780120FFF7B0FF01342846A642F6DC70BD7047C089FF1F08B5084B1B78032B0AD8064B5B78132B06D8013317
:400CC000034A5370C1B20120FFF798FF08BD00BFC089FF1F0B4B1B78032B0CD97047094B5B78132B0CD80133064A53700120FFF785FF204600E010B5441C01780029EED12E
:400D000010BD00BFC089FF1F08B521B1074B1A781043187004E0054A137823EA00001070024B19780020FFF769FF08BDCC80FF1F08B5142011F0BEFD03210020FFF744FF72
:400D4000052011F0B7FD03210020FFF73DFFC82011F0C6FD03210020FFF736FF352011F0BFFD02210020FFF72FFF352011F0B8FD28210020FFF742FF08210020FFF73EFF68
:400D800001210020FFF73AFF4FF4076011F0A8FD06210020FFF732FF01210420FFF7B4FF08BD00BF38B50D4600F00700C10041F040010020FFF722FF002404E0295D012041
:400DC000FFF71CFF0134072CF8DD38BD08B509F0E3F808BD08B50B46896A9869FFF72EFF08BD00BF08B5FFF719FF08BD08B589690120FFF789FF08BD08B589690220FFF747
:400E000083FF08BD70B54C4B4C4A0021084607F02FFC4B4B4B4A0021084607F029FC4A4B4A4A0021084607F023FC494B494A0021084607F01DFC484B484A0021084607F0F3
:400E400017FC474B474A0021084607F011FC464B464A0021084607F00BFC454B454A0021084607F005FC444B444A0021084607F0FFFB434B434A0021084607F0F9FB0022A1
:400E80004149104607F08AFB0446404D404B2A460146002007F0ECFB3E4B3F4A2146002007F0E6FB3D4E3E4B32462146002007F0DFFB3C4B3C4A2146002007F0D9FB0022E9
:400EC0003A49104607F06AFB0446394B2A460146002007F0CDFB374B32462146002007F0C7FB354B354A2146002007F0C1FB00223349104607F052FB0446324B2A46014630
:400F0000002007F0B5FB304B304A2146002007F0AFFB2F4B2F4A2146002007F0A9FB2E4B2E4A2146002007F0A3FB2D4B2D4A0021084607F09DFB70BD61130000D0B5020096
:400F4000B1120000DCB50200D50D0000E8B50200A5120000F8B502009512000004B60200E50D000010B60200F90D00001CB60200ED0D00002CB60200851200003CB60200D4
:400F8000F11200004CB6020058B6020028B5010051120000FD15000060B60200D4B50200ED160000F51400002CB5010068B602001D12000059140000D11300006CB6020072
:400FC00078B60200CD110000291100007CB60200B110000088B602005510000090B60200E90F00009CB6020010B586B072B6002403E03D2007F0B6FD01344E2CF9DD0A209B
:4010000007F0B0FD02F096F809F058FB02AB03AA04A905A802F056F8029B0093039B049A05990A4808F02AF8FF23059304A809F037FD0499642303FB01F3059A93FBF2F31B
:40104000034808F01BF862B606B010BDA8B60200D8B6020038B58D688A69002A24DB4FF4166303FB02F2114B83FB0213D217C2EBA313B3F5803F17DA98B26882AA8A02FBEB
:4010800003F3002B02DA03F5FF437F33DC132B8A2BB910F06FF9A0B210F072F938BD11F01FFAA0B211F022FA38BD00BFD34D621038B58D6891F91030042B02D0052B03D026
:4010C0000BE0886940010CE00022154BD1E9060112F02EF812F0C6FA03E0124807F0CEFF38BD00281BDBB0F5004F18DC6A8AA88202FB00F3002B02DA03F5FF437F33DC13CE
:401100002B8A33B9104610F035F9A0B210F038F938BD104611F0E4F9A0B211F0E7F938BD0000E040F8B6020070B58E6891F91030042B02D0052B06D008E0886911F092FF8F
:4011400004460D4606E0D1E9064503E01E4807F095FF70BD002200232046294612F05AFA68BB002200232046294612F049FA50B922462B4612A1D1E9000112F003F912F0A4
:4011800071FA024600E00022B2F5803F17DA90B27082B38A03FB02F3002B02DA03F5FF437F33DC13338A2BB910F0E4F8A0B210F0E7F870BD11F094F9A0B211F097F970BD64
:4011C00000000000804F424118B7020030B585B00C4606238A680146684607F065FA9DE80F0084E80F0094F91030042B03D1238B012B08D903E0084807F040FF0AE00648BF
:4012000007F03CFF06E0A2681382002353824FF48043938205B030BD40B7020030B585B00C4602238A680146684607F03DFA9DE80F0084E80F0094F91030042B02D1B4F918
:40124000182001E04FF0FF32A3681A8205B030BD30B585B00C4604238A680146684607F023FA9DE80F0084E80F0094F91030042B01D1A26901E04FF0FF32A3681A6105B09A
:4012800030BD00BF08B50B468A6A91689869FFF789FD08BD08B58B6999889868FFF7E6FC08BD00BF08B58869FFF700FD08BD00BF08B5087E10F03EF808BD00BF70B50024AC
:4012C000094D0BE0094E36F814304BB10021284608F040FF36F814301D440134032CF1DD08F072FF70BD00BFCCB50100C4B5010038B50C460FF0B0FF054694F90030072BA5
:4013000020DDA268538833B9104B114A40F22111104812F047FB4FF6FF718B4206D10E4B0B4A4FF491710B4812F03CFB013B9BB253803BB994F90030083B084A52F8233012
:401340002046984704232370A56038BDC0B40100C4B50200D8B40100E8B401001CD8020038B50C460EF0D0FC054694F90030072B20DDA268538833B9104B114A40F2211139
:40138000104812F00FFB4FF6FF718B4206D10E4B0B4A4FF491710B4812F004FB013B9BB253803BB994F90030083B084A52F823302046984704232370A56038BDC0B401007C
:4013C000C4B50200D8B40100E8B401001CD8020038B50C468B68187C10F040FE10F002FE002010F00BFE10F01BFE054694F90030072B20DDA268538833B9114B114A40F21B
:401400002111114812F0CEFA4FF6FF718B4206D10E4B0C4A4FF491710B4812F0C3FA013B9BB253803BB994F90030083B084A52F823302046984704232370A56038BD00BF01
:40144000C0B40100C4B50200D8B40100E8B401001CD8020000000000D0B50C468B68187C10F0FCFD10F0BEFD002010F0C7FD10F0D7FD11F0F7FD18A3D3E9002311F058FEAC
:4014800006460F4694F90030072B20DDA268538833B9134B134A40F22111134812F082FA4FF6FF718B4206D1104B0E4A4FF491710D4812F077FA013B9BB253803BB994F9E0
:4014C0000030083B0A4A52F823302046984705232370C4E90267D0BDFCA9F1D24D62403FC0B40100C4B50200D8B40100E8B401001CD8020070B50C468B681B698D692E1C11
:4015000018BF0126013B042B46D8DFE803F0030E12161A00002010F0E9FF1DB1042010F0D1FF02E0012010F0CDFF304610F0A6FD0AE0304610F0C0FD06E0304610F0DCFD13
:4015400002E0304610F0F8FD94F90030072B20DDA268538833B9244B244A40F22111244812F020FA4FF6FF718B4206D1214B1F4A4FF491711E4812F015FA013B9BB2538052
:401580003BB994F90030083B1B4A52F82330204698470323237070BD91F90030072B20DD8A68538833B9104B104A40F22111104812F0F8F94FF6FF718B4206D10D4B0B4AFE
:4015C0004FF491710A4812F0EDF9013B9BB253803BB994F90030083B074A52F82330204698470223237070BDC0B40100C4B50200D8B40100E8B401001CD8020010B50C46DD
:401600008B681B698A6912B1012A02D03CE0022000E00C20023B032B36D8DFE803F00205080B10F037FD07E010F052FD04E010F06FFD01E010F08CFD94F90030072B20DDD9
:40164000A268538833B9244B244A40F22111244812F0A8F94FF6FF718B4206D1214B1F4A4FF491711E4812F09DF9013B9BB253803BB994F90030083B1B4A52F82330204620
:4016800098470323237010BD94F90030072B20DDA268538833B9104B104A40F22111104812F080F94FF6FF718B4206D10D4B0B4A4FF491710A4812F075F9013B9BB25380B3
:4016C0003BB994F90030083B074A52F82330204698470223237010BDC0B40100C4B50200D8B40100E8B401001CD8020038B50C468B681B69023B032B3BD8DFE803F0020638
:401700000A0E10F0D3FC05460AE010F0EDFC054606E010F009FD054602E010F025FD054694F90030072B20DDA268538833B9254B254A40F22111254812F034F94FF6FF7182
:401740008B4206D1224B204A4FF491711F4812F029F9013B9BB253803BB994F90030083B1C4A52F823302046984704232370A56038BD91F90030072B20DD8A68538833B930
:40178000104B114A40F22111104812F00BF94FF6FF718B4206D10E4B0B4A4FF491710B4812F000F9013B9BB253803BB994F90030083B084A52F823302046984701232370DC
:4017C00038BD00BFC0B40100C4B50200D8B40100E8B401001CD8020070B51646002405E04D1C08780FF088FD01342946B442F7DB304670BD08B5FFF7EFFF08BD08B562B6E4
:401800002C480FF02BFE0EF029FA10F029FA0FF0FDFD10F0B1FE012010F054FE0FF05EFD01F034F8FFF784FA10F008FC10F0CCFB4FF40041204808F0EDFB0020FEF772FEA6
:401840000020FFF703F9002000F0C4FB002000F043FEFFF7D7FA1E21184807F08FF900210846FFF7EBF91648FFF734FA05210120FFF7E4F91348FFF72DFA01F00FF8B0B993
:40188000FFF7CCF91721104807F078F9FFF716FD0F210320FFF7D2F90C48FFF71BFA01210846FFF731FA1021094807F067F901F015F8E4E7CD0D0000C489FF1F5CB702006C
:4018C0007CB7020090B70200A0B70200B8B70200C0B7020038B50546D0F8A830984795F8903018421DD0AB88EC88A4B21C1BA4B2042C0DD904240BE0D5F8AC102868EB889D
:401900009BB25A1C92B2EA80C05C8847013CA4B2002CF1D1EB889BB2AA88934201D301232B7238BD38B50446D0F8A43098472FE094F89130034228D0E589ADB26B1C9BB28D
:40194000E381D4F8B030984725442874E3899BB27F2B0DD8E28992B2A3899BB29A4214D1E3899BB2013B9BB2E3810123A3720CE0A3899BB23BB9E3899BB2013B9BB2E38164
:401980000123A37201E00023E381D4F8A43098470028CDD138BD00BFF8B504460F4616461D46B422002112F075F9012323720A23E37284F8907084F89160C4F89450069BB6
:4019C000C4F89830079BC4F89C30089BC4F8A0300A9BC4F8A430099BC4F8A8300B9BC4F8AC300C9BC4F8B030A847D4F89C3003B19847D4F8A03003B19847F8BD08B5D0F899
:401A00009C30984708BD00BF10B50446D0F8A030984711F09DF90023A381E381A37211F09BF910BD037A13F0FF0F1BD0E2B110B50446016082800123C38000230372D0F8F3
:401A4000AC3008789847637A13F0010F0ED14021002010F0D5FF237A13F0FF0FF7D0E08880B210BD0020704700207047002010BD70B504460D46164622B91FE04021002017
:401A800010F0BEFFA28992B2E3899BB29A42F5D03046A3899BB2691C5A1C92B223441B7C2B707F2A00D90022A281013804D0E3899BB20D469A42ECD1301A70BD002070BD9C
:401AC000C3899BB2828992B2934203D3808980B2181A7047808980B21B1A03F18000704710B483899BB2C489A4B2827AD2B11DE05A1C92B203441B7CDBB2C17A8B420DD14D
:401B000083899BB29A4203D9808980B2101A0FE0808980B2121A02F1800009E000237F2A00D81346A342E3D1002001E04FF0FF3010BC704708B5017742770362029A426262
:401B4000039A8262049AC262059A0263069A4263079A8263089AC263099A02640A9A4264984708BD2DE9F0420446894616461D46079F636B9847237F1842FAD0E36A984730
:401B8000236B9847636C9847C4F8009066602FB1069BB342B8BF3346A36002E0069BF318A3600023E36025610DB91D4600E0069D65610FB9764200E00026A6610BE0A26B1B
:401BC0002368591C216018789047E3680133E360627F934211DAE26863689A42EFDB08E0A36B00209847E3680133E360627F934203DAE268A3689A42F2DB636A9847A36ADE
:401C00009847BDE8F08200BF2DE9F0478EB007460C468B681D6991F910300B2B23D191F92020042A1FD18E6A701C00F0E9FF8046002860D0A36999689A880023019300967A
:401C400003462846FFF78EFF6B6B98472B7F0342FAD0002308F806303346424639460AA805F05AFD4FE00A2B45D194F92030042B41D1A369B3F80680D4F828A05046C245DF
:401C8000B8BF404600F0BCFF8146A0B3002611E0324604F1100106A802F084F89DF91830042B03D0484601F005F924E0089B09F8063001364645EBDB00230193CDF800A0D2
:401CC0004B46424649462846FFF74CFF6B6B98472B7F1842FAD0002309F80A3002AD53464A463946284605F017FD95E80F000EAD05E90F0007E000230A930B930C930D9316
:401D000001238DF8283006AD0EAB13E90F0085E80F0094F90030072B20DDA268538833B9124B134A40F22111124811F03BFE4FF6FF718B4206D1104B0D4A4FF491710D489B
:401D400011F030FE013B9BB253803BB994F90030083B0A4A52F823302046984706AB0FCB84E80F000EB0BDE8F08700BFC0B40100D4B70200D8B40100E8B401001CD80200ED
:401D800070B584B00C4632B191F91030042B15D18D69013D00E0002585B90423A2680146684606F081FC9DE80F0084E80F0005EBC505EB0016490B44136126E094F900300D
:401DC000072B20DDA268538833B9124B124A40F22111124811F0E6FD4FF6FF718B4206D10F4B0D4A4FF491710C4811F0DBFD013B9BB253803BB994F90030083B094A52F81F
:401E00002330204698470123237004B070BD00BFC4090020C0B40100D4B70200D8B40100E8B401001CD802002DE9F0418AB080460D468B681C698E69701C00F0E1FE40B947
:401E40000023069307930893099301238DF8183015E0074600210191009603460A462046FFF780FE636B9847237F1842FAD00023BB5533463A46414606A805F04DFC02AC26
:401E80000AAB13E90F0084E80F0095F90030072B20DDAA68538833B9124B134A40F22111124811F07FFD4FF6FF718B4206D1104B0D4A4FF491710D4811F074FD013B9BB28C
:401EC00053803BB995F90030083B0A4A52F823302846984702AB0FCB85E80F000AB0BDE8F08100BFC0B40100D4B70200D8B40100E8B401001CD80200F0B583B00C468B680B
:401F00001D6991F910300B2B0ED18B6999689A880023019300932846FFF724FE6B6B98472B7F1842FAD021E01746042B1ED1104600F066FE0646C8B1002305E05A1C04EB7A
:401F400002118968F1541346BB42F7DB0023019300933A4631462846FFF704FE6B6B98472B7F1842FAD0304600F0A4FF94F90030072B20DDA268538833B9114B114A40F217
:401F80002111114811F00EFD4FF6FF718B4206D10E4B0C4A4FF491710B4811F003FD013B9BB253803BB994F90030083B084A52F82330204698470123237003B0F0BD00BF8F
:401FC000C0B40100D4B70200D8B40100E8B401001CD8020010B58AB01C4B08931C4B07931C4B06931C4B05931C4B04931C4B03931C4B02931C4B01931C4B00931C4B042245
:4020000010211C48FFF796FD1B4B1A681B49002006F0C4FA04461A4B1A4A0146002006F027FB194B194A2146002006F021FB184B184A2146002006F01BFB174B174A2146EE
:40204000002006F015FB0AB010BD00BF392201002122010015220100FD210100E5210100D9210100CD2101008521010079210100D5220100C4090020FC140020E0B702001C
:40208000811D000028B50100291E0000D4B50200F91E00002CB50100091C0000E4B7020010B50C4691F90030072B20DD8A68538833B9124B124A40F22111124811F072FC78
:4020C0004FF6FF718B4206D10F4B0D4A4FF491710C4811F067FC013B9BB253803BB994F90030083B094A52F8233020469847042323704FF48063A36010BD00BFC0B4010070
:40210000F0B70200D8B40100E8B401001CD8020010B50C4691F90030072B20DD8A68538833B9124B124A40F22111124811F03AFC4FF6FF718B4206D10F4B0D4A4FF4917120
:402140000C4811F02FFC013B9BB253803BB994F90030083B094A52F8233020469847042323704FF40063A36010BD00BFC0B40100F0B70200D8B40100E8B401001CD802002D
:4021800010B50C4691F90030072B20DD8A68538833B9114B114A40F22111114811F002FC4FF6FF718B4206D10E4B0C4A4FF491710B4811F0F7FB013B9BB253803BB994F983
:4021C0000030083B084A52F8233020469847042323701023A36010BDC0B40100F0B70200D8B40100E8B401001CD802002DE9F04188B00C46012A4FDD054691F91030042BD1
:402200004AD191F92030042B46D18E698F6A781C00F0F6FC8046002868D03A4606F1804101F5004111F05CFC002308F8073004AE3B4642462946304605F06EFA96E80F002B
:402240008DE80F0094F90030072B20DDA268538833B9284B284A40F22111284811F0A2FB4FF6FF718B4206D1254B234A4FF49171224811F097FB013B9BB253803BB994F971
:402280000030083B1F4A52F82330204698479DE80F0084E80F0029E01B4806F0EFFE94F90030072B20DDA268538833B9114B124A40F22111114811F075FB4FF6FF718B42DD
:4022C00006D10F4B0C4A4FF491710C4811F06AFB013B9BB253803BB994F90030083B094A52F82330204698470123237008B0BDE8F08100BFC0B40100F0B70200D8B40100E4
:40230000E8B401001CD80200FCB702002DE9F0470C46012A76DD91F91030042B72D191F920300B2B6ED18D698B6A9F889E6810F055F805F00F08C8F11008B84500DDB84693
:40234000B8F1100F11D0C8EB07070BE006F1010A05F10109A9B230780FF0D8FF00287FD156464D46B8F10108F0D529090BE001F10108C9B2304610F037F8002870D1A5F1D8
:402380001007103641463D460F2FF0D809010BE006F101084D1C89B230780FF0B7FF00285ED1013F46462946002FF1DCA36A9D8894F90030072B20DDA268538833B93F4BB3
:4023C0003F4A40F221113F4811F0ECFA4FF6FF718B4206D13C4B3A4A4FF49171394811F0E1FA013B9BB253803BB994F90030083B364A52F823302046984704232370A5600B
:40240000BDE8F087324806F039FE94F90030072B20DDA268538833B9284B294A40F22111284811F0BFFA4FF6FF718B4206D1264B234A4FF49171234811F0B4FA013B9BB289
:4024400053803BB994F90030083B204A52F8233020469847042323700023A360BDE8F0871C4806F00BFE94F90030072B20DDA268538833B9114B124A40F22111114811F0B7
:4024800091FA4FF6FF718B4206D10F4B0C4A4FF491710C4811F086FA013B9BB253803BB994F90030083B094A52F8233020469847042323700023A360BDE8F087C0B4010078
:4024C000F0B70200D8B40100E8B401001CD80200FCB7020018B8020038B504460FF012FF124B1A681249204606F058F80546114B114A0146204606F0BBF8104B104A2946E3
:40250000204606F0B5F80F4B0F4A2946204606F0AFF80E4B0E4A2946204606F0A9F80D4B0D4A2946204606F0A3F838BDFC14002030B802001121000064BB02008121000037
:4025400038B80200A120000044B80200ED210000D4B502000D2300002CB5010070B4024600E02A46114B83FB0134CB17C3EBA4031C4603EB83035D004B1B551C303313700D
:402580002146002CEDD100235370034609E01C4614F8015B114611F801691E70157023460A469A42F3D870BC704700BF6766666600B583B000230093019308220649684617
:4025C0000DF04EFB18B105480EF0A2FEFEE7002003B05DF804FB00BFC4B5010058B80200034BC3F88430002283F88120704700BF0C0A0020014B93F8810070470C0A00209E
:40260000024BD3F88400C01A704700BF0C0A0020004870470C0A002010B504460DF0A0FE0028FBD020460DF025FE10BDF0B585B02748FFF7F1FF00242746264E1BE02648B6
:40264000FFF7EAFF214601A8FFF788FFFFF7E4FF2248FFF7E1FF354635F8021B01A8FFF77DFFFFF7D9FF1E48FFF7D6FF338802331F4401342E46032CE1DD642101FB07F194
:40268000002902DA01F57F41FF310C141548FFF7C3FF394601A8FFF761FFFFF7BDFF1248FFF7BAFF4FF4803101A8FFF757FFFFF7B3FF0E48FFF7B0FF214601A8FFF74EFFE2
:4026C000FFF7AAFF0A48FFF7A7FF002005B0F0BD7CB80200C4B50100B0BC02008CB8020094B802009CB80200A4B80200A8B80200ACB8020038B50DF049FC30B10DF040FC54
:4027000088B30DF06BFD012038BD0DF039FC60B30DF01AFE60B30DF0FDFD0546FFF770FFC0F18004A54200DC2C46A1B2114BD3F884000DF021FE0DE00E4AD2F88430591C13
:40274000C2F884101B780A2B03D10122094B83F88120013C002CEFD1064BD3F8843000221A70022038BD012038BD4FF0FF3038BD002038BD0C0A00202DE9F047804689467A
:402780000E4624E0FFF73CFF024620B9FFF7B2FF00281CDA20E0864201DD054600E03546541BAA462A460E49404611F099F9002C09DD0B4F22467919384611F007FA3A19E6
:4027C000C7F8842001E0FFF70BFFD044761B002ED8DC4846BDE8F0870020BDE8F08700BF0C0A002070B5C2B00546244C40AB2068616803C30023083407E042AA02EB43027B
:4028000032F8082C1AB114440133032BF5DD032B2FDC61191A4A91422DD842AA02EB430323F8085C0822154940A80DF019FAD0B114480EF06DFDFEE7FF2D01D8294601E057
:402840004FF480716846FFF797FF06460246214668460DF005FA18B10B480EF059FDFEE7AD1BADB23444002DE6D1FFF7B9FE002002E0012000E0022042B070BDC4B5010002
:40288000C4B5020058B80200B4B8020008B5012100200DF03DFBFFF7A3FE08BD10B5002412E0601040EA241000F001000EF042FDFFF720FFFFF79EFE40B90DF025FA28B121
:4028C0000A200FF0F7FF0134FF2CEADD00200EF031FDB4F5807018BF012010BD10B5FFF77FFEFFF707FFFFF785FE0028F9D0FFF78FFE424912F0CAFB044618B94048FFF7DC
:402900008BFE72E03F4911F0C7FA48B93E48FFF783FE3E48FFF780FE3D48FFF77DFE64E03C49204611F0B8FA18B93B48FFF774FE5BE03A49204611F0AFFA38B93248FFF7B7
:402940006BFE64200FF0B6FF0FF0ACFF3449204611F0A2FA00284BD03249204611F09CFA28B9FFF725FE2848FFF756FE3DE02E49204611F091FA50BB204912F087FB18B9CE
:402980002A48FFF749FE30E011F02EF80446B0F5803F03D92648FFF73FFE26E0FFF720FE2448FFF739FEA0B2FFF71CFF012806D0022808D0C8B91648FFF72EFE15E01E4893
:4029C000FFF72AFE11E01D48FFF726FE0DE01C49204611F061FA28B9FFF728FE0C48FFF71BFE02E01748FFF717FEFFF7F9FD78E71548FFF711FE002010BD00BF50B8020026
:402A0000C8B80200D8B80200E0B80200E8B8020038B9020040B9020048B9020064B902006CB9020014B602002CB501008CB9020094B90200ACB90200C4B90200E8B9020042
:402A400010BA02001CBA020074B9020008B5030C2BD1C0F3CF139BB11A0A03D11B029BB2092200E00122190B02D104321B019BB2990B02D102329B009BB2A2EBD33300E0AE
:402A80001023D3F1100301D0DA1C00E00422D04000F0070000EBC300092B07D9044B054A4FF49371044810F07DFF4F2008BD00BFB8BA020034BA0200D8BA020038B50C469F
:402AC0008B680BBB0546086820F00300FFF7BEFF6268031D05EB83035A606368B3B9C10800F00700802343FA00F06A18937923EA0003937153B94FF4004343FA01F1AB8825
:402B000023EA0103AB8001E04A685A6063680BB1A2689A6038BD00BFF8B505460C460B6823F001020A6023F00303043BC950086820F00300FFF78AFF4F2806D9164B174A05
:402B400040F23D11164810F02DFFC30800F007074FF4004141FA03F6A9883143A98080223A412B4499790A439A710023A360031D05EB83035B68636003B19C60043005EBF0
:402B800080004460204650F80C2B22F00302103AFF2111F07FF8F8BD10BB020040BA0200D8BA020038B531B9114B124A4FF4D271114810F0F7FE0546104B1B68B3B921F0F8
:402BC00003040E4B18604FF4AC72002111F062F82C60A4F5AE7205F5AC7142F00203C5F8583105238B502846FFF796FF38BD00BF2CBB020050BA0200D8BA0200940A002050
:402C0000F8B57F4B1E680430434203F00303C4180F2C00D810242046FFF718FF031D06EB83035F684FB13B6823F003039C4204D8C10800F007023D4684E00130031D06EB90
:402C400083035D68C10800F00702002D7AD173189879802343FA02F2013A024093B29BB102F0FF0372B11A0903D11B01DBB2052200E00122980902D102329B00DBB2A2EB13
:402C8000D31248E0082246E0B2884FF400430B41591E114036D099B10B0A03D1090289B2092300E001230A0B02D10433090189B28A0B02D10233890089B2A3EBD13300E0FD
:402CC0001023194633449B7973B11A0903D11B01DBB2052200E00122980902D102329B00DBB2A2EBD31216E0082214E03B6823F003039C4205D839463046FFF7DFFE3D46B1
:402D000047E07F68002FF1D11C223E490120FEF763FD002472E002EBC1004F2806D93A4B3A4A40F215213A4810F03CFE031D06EB83035D6835B9374B344A40F21721344882
:402D400010F030FE2B6823F003039C4206D9324B2E4A40F21A212E4810F024FE6B68043006EB800043606B688BB9802343FA02F27018837923EA0202827152B94FF40043A3
:402D800043FA01F1B38823EA0101B18001E000229A602B6823F003039C4206D91F4B204A40F27B111A4810F0FDFD1B1B102B07D92B512B6803F0030323432B60291900E0A9
:402DC000002139B10B6843F002030B603046FFF7A3FE06E02B6823F00303EA5842F00202EA502A6842F001022C4644F8042B22F00302043AAA21204610F04CFF2046F8BDD1
:402E0000940A002060BA020010BB020080BA0200D8BA020038BB020048BB02006CBB020090BA02002DE9F041214B1E68434203F00303C71806F5AC7400E02C46206820F011
:402E400003016518635823F003032B44326832449342F2D310F0010F25D104398F4222D821463046FFF72AFE216821F00302D21B102A07D82B6823F003030B4443F0010304
:402E800023600DE02B683B447A4205EB0208AB502368DB1B236021463046FFF73DFE4446201DBDE8F0813846FFF7AAFEBDE8F081940A00202DE9F04104462A4B1F68061F4E
:402EC00050F8045C25F0030506EB0508735913F0010F15D141463846FFF7F0FD464506D3214B224A40F29111214810F05BFD735923F0030354F8042C134444F8043C02E07B
:402F000023F00203735154F8043C13F0020F21D154F8085C2B6813F0010F06D0154B164A40F28A21124810F03DFD29463846FFF7C5FDAE4206D80C4B0C4A40F291110C487E
:402F400010F030FD54F8043C23F003032A6813442B6000E0354629463846FFF7DDFDBDE8F08100BF940A002088BB02009CBA0200D8BA020098BB0200A8BA02002DE9F84325
:402F800005464A4BD3F80080071F0C1D634203F003031C440F2C00D8102455F8046C26F00306B4421FD907EB0609BB5913F0010F65D123F0030333449C4260D8494640466F
:402FC000FFF77CFD4F4506D3394B3A4A40F29111394810F0E7FCBB5923F0030355F8042C134445F8043C55F8046C26F0030607EB0609B44206D9314B314A40F27B112E485A
:4030000010F0D0FC331B102B09D93B5155F8043C03F00303234345F8043C3C4400E0002444B1236843F002032360BB5913F0010F1BD106E0BB5943F00203BB512846BDE841
:40304000F88349464046FFF739FDA14506D8184B184A40F29111184810F0A4FCBB5923F0030322681344236002E023F00203BB5121464046FFF750FD2846BDE8F883084694
:40308000FFF7BEFD044668B155F8042C22F00302043A294610F024FD2846FFF70BFF2046BDE8F8830020BDE8F88300BF940A002088BB02009CBA0200D8BA02006CBB02008F
:4030C00090BA0200F0B41A4C25682C6804600020086010604FF0FF30186005F5AC74D5F8586106F001061DE0206810F0010F05D120F0030017683844106004E020F003009A
:403100000F6838440860206800F00100B04205D0186801301860266806F00106206820F003000444286828448442DDD3F0BC7047940A00202DE9F04385B0684B1E68684863
:4031400005F09CFF06F5AC77336833443A463146644805F093FF3168A1F5AC72624805F08DFF102302930193042300934FF4AC7211465E4805F082FF5D4805F07FFF5D4846
:4031800005F07CFF002403E05B4805F077FF01343F2CF9DD594805F071FF002534E0B288AA40C2F3C0322946554805F067FF002414E073199979A140C1F3C011514805F0F9
:4031C0005DFF514B234003D5013B63F003030133032B02D14D4805F051FF0134072CE8DD00240BE004EBC503502B09D8043306EB83035968464805F041FF0134072CF1DD41
:403200003E4805F03BFF01350A2DC8D9414805F035FF5CE03946404805F030FF3B6823F00301C3F34002009203F001030A463B4805F024FF3B6813F0010F30D023F00305BB
:40324000043D1F2D00D9202507F104084346002407E003F101091978314805F00FFF01344B46AC42F5DB03E02E4805F007FF01341F2CF9DD2C4805F001FF00240DE008F15F
:40328000010998F80010A1F120035E2B00D92E21264805F0F3FE0134C846AC42EFDB386810F0010F0CD120F00300FFF7CFFBBB687A68009200F00702C1081D4805F0DEFEC0
:4032C0000E4805F0DBFE3B6823F003031F44336833449F429ED305B0BDE8F083940A0020ACBB0200CCBB0200E8BB020004BC020050BC020078BC0200A0BC0200C0B9020026
:40330000A4BC0200B4BC020003000080B0BC0200B8BC0200BCBC020020BD0200D8BC0200F8BC020000BD020040D0020004BD020008BD02002DE9F04F89B0129FDDF84C8072
:403340009C68E488002C57D01E4693468A468146002425464EE0B36899682A018B188A560A2A08D1CDF8048000975A4651464846FFF7E0FF34E000220292214A019200934D
:403380005B465246494604A805F0C0FA04A9384604F070FB04439DF91030072B20DD069A538833B9174B184A40F22111174810F0F9FA4FF6FF718B4206D1154B124A4FF4DB
:4033C0009171124810F0EEFA013B9BB253803BB908A810F9103D083B0E4A52F8233098470135B368DB889D4206DA4146384604F041FB0443002CAED009B0BDE8F08F00BFE7
:40340000E0BD0200C0B4010024BD0200E8BD0200E8B401001CD8020038B50C468B68DD8891F90030072B20DD8A68538833B9114B114A40F22111114810F0B4FA4FF6FF714B
:403440008B4206D10E4B0C4A4FF491710B4810F0A9FA013B9BB253803BB994F90030083B084A52F823302046984704232370A56038BD00BFC0B4010024BD0200E8BD0200C8
:40348000E8B401001CD8020010B50C468B68DB883BB391F90030072B20DD8A68538833B9244B254A40F22111244810F07BFA4FF6FF718B4206D1224B1F4A4FF491711F487E
:4034C00010F070FA013B9BB253803BB994F90030083B1C4A52F82330204698470223237010BD91F90030072B20DD8A68538833B9104B114A40F22111104810F053FA4FF69F
:40350000FF718B4206D10E4B0B4A4FF491710B4810F048FA013B9BB253803BB994F90030083B084A52F82330204698470323237010BD00BFC0B4010024BD0200E8BD020027
:40354000E8B401001CD802002DE9F041884601F110078B689E68DD88002406E0394606EB041007F0A5FA10B10134AC42F6DBAC422CDA98F90030072B21DDD8F808205388AB
:4035800033B9284B284A40F22111284810F00AFA4FF6FF718B4206D1254B234A4FF49171224810F0FFF9013B9BB253803BB998F90030083B1F4A52F823304046984704239F
:4035C00088F80030C8F80840BDE8F08198F90030072B21DDD8F80820538833B9114B124A40F22111114810F0DDF94FF6FF718B4206D10F4B0C4A4FF491710C4810F0D2F995
:40360000013B9BB253803BB998F90030083B094A52F8233040469847012388F80030BDE8F08100BFC0B4010024BD0200E8BD0200E8B401001CD8020038B50C46FFF784FFEE
:4036400094F90030042B01D1032500E0022594F90030072B20DDA268538833B90F4B104A40F221110F4810F09DF94FF6FF718B4206D10D4B0A4A4FF491710A4810F092F974
:40368000013B9BB253803BB994F90030083B074A52F8233020469847257038BDC0B4010024BD0200E8BD0200E8B401001CD8020070B590B005460C46164600231A46014643
:4036C0000CA803F029FE0E9B002B72D02EB94D4A294608A804F00EF80CE004F1100300220292494A0192009333462246294608A805F00CF908AB01930CAB00932346324680
:4037000021462846FFF716FE9DF92030072B20DD0A9A538833B93D4B3D4A40F221113D4810F040F94FF6FF718B4206D13A4B384A4FF49171374810F035F9013B9BB253804B
:403740003BB910A810F9203D083B344A52F82330984704AD10AB13E90F0085E80F0094F90030072B20DDA268538833B9274B284A40F22111274810F015F94FF6FF718B4203
:4037800006D1254B224A4FF49171224810F00AF9013B9BB253803BB994F90030083B1F4A52F823302046984704AB0FCB84E80F0026E094F90030072B20DDA268538833B942
:4037C000124B134A40F22111124810F0EBF84FF6FF718B4206D1104B0D4A4FF491710D4810F0E0F8013B9BB253803BB994F90030083B0A4A52F823302046984701232370B4
:4038000010B070BDB0B80200E0BD0200C0B4010024BD0200E8BD0200E8B401001CD8020070B5044616460023036043608360C3600A2303700C20FFF7E3F998B105463001A3
:40384000FFF7DEF918B92846FFF734FB0AE001226A8041222A7052226A70AE800022EA80A860A560204670BDF0B589B091F910300A2B04D00A21504805F080F999E00C46CE
:403880008E688F69F288FB881A44014604A8FFF7C7FF069D002D00F08C80F2881201B168A86810F01DF9AB68F088FA881201B96803EB001010F014F9F088FB88184480B2A3
:4038C000E880AB6803EB00101BE003F1100193F90020072A14DD9A68538833B9374B384A4FF48971374810F05DF8FF2B06D1364B334A40F21311334810F054F80133538080
:403900000B468342E1D304F1100094F91030072B1FDD8268538833B9284B2C4A40F22111284810F03FF84FF6FF718B4206D1284B264A4FF49171234810F034F8013B9BB277
:40394000538033B994F91030083B224A52F8233098470023237408AB13E90F008DE80F0094F90030072B20DDA268538833B9134B164A40F22111134810F014F84FF6FF7199
:403980008B4206D1124B114A4FF491710D4810F009F8013B9BB253803BB994F90030083B0C4A52F82330204698479DE80F0084E80F0009B0F0BD00BFF4BD0200C0B401002C
:4039C00030BD0200E8BD020000BE020024BD0200E8B401001CD8020070B5064683689868DD8800EB051526E000F1100490F90030072B1FDD8268538833B9144B144A40F2A3
:403A0000211114480FF0CEFF4FF6FF718B4206D1114B0F4A4FF491710E480FF0C3FF013B9BB2538033B990F90030083B0B4A52F8233098472046A842D6D3B468A068FFF79A
:403A400039FA2046FFF736FA70BD00BFC0B4010024BD0200E8BD0200E8B401001CD8020038B583689868DD8800EB051504E000F1100407F0B3F82046A842F8D338BD00BF6D
:403A800038B50D4684680901A068FFF777FA18B1A060A580002038BD012038BDF8B5174686680D1E02DAF388ED1848D4B3889D4204DB691CFFF7E4FF002842D1F2889542CA
:403AC00030DAB1682A0188188B56072B2EDD8468638833B91C4B1D4A40F221111C480FF061FF4FF6FF7E734506D11A4B174A4FF4917117480FF056FF013B9BB26380ABB923
:403B00008B56083B144A52F8233098470EE0B06811014418002343506360A360E360012343541A449542F2DC6B1CF380B36803EB051597E80F0085E80F000020F8BD052075
:403B4000F8BD0120F8BD00BFC0B4010024BD0200E8BD0200E8B401001CD8020030B58DB00C46002A37D1014604A8FFF759FE069B002B00F0EB8004AB0FCB0CAD05E90F001D
:403B800094F90030072B20DDA268538833B9704B704A40F2211170480FF004FF4FF6FF718B4206D16D4B6B4A4FF491716A480FF0F9FE013B9BB253803BB994F90030083BB2
:403BC000674A52F82330204698470CAB13E90F0084E80F00BAE01346012A4ED191F91020042A4AD18A69002A47DB01466846FFF717FE029B002B00F0A98000230493059343
:403C00000693079301238DF81030A169002904DD04AA01396846FFF741FF9DE80F000CAD05E90F0094F90030072B20DDA268538833B9474B474A40F2211147480FF0B2FEBC
:403C40004FF6FF718B4206D1444B424A4FF4917141480FF0A7FE013B9BB253803BB994F90030083B3E4A52F82330204698470CAB13E90F0084E80F0068E0022B62D194F932
:403C80001030042B5ED1A269002A5BDB014604A8FFF7C6FD069B002B58D000251FE004F1200294F92030072B14DD91684B8833B9274B2C4A4FF4897127480FF073FEFF2B3A
:403CC00006D1294B274A40F2131123480FF06AFE01334B80294604A8FFF7E0FE0135A3699D42DCDB04AB0FCB0CAD05E90F0094F90030072B20DDA268538833B9144B154A60
:403D000040F2211114480FF04DFE4FF6FF718B4206D1124B0F4A4FF491710F480FF042FE013B9BB253803BB994F90030083B0C4A52F82330204698470CAB13E90F0084E8D9
:403D40000F0003E00E21094804F018FF0DB030BDC0B4010024BD0200E8BD0200E8B401001CD8020030BD020000BE02001CBE020010B5022A0ED10C4691F91030042B09D10A
:403D800001F1200289692046FFF788FE002384F8203010BD2321024804F0F0FE10BD00BF2CBE020010B404468B68002A01DAD9880A44002A02DBD9888A4207DB0023236006
:403DC0006360A360E3600123237005E09B6803EB02120FCA84E80F00204610BC704700BF30B589B00C464FF0FF3204A8FFF7DAFF9DF91030072B14DD069A538833B9214BF6
:403E0000214A4FF4897121480FF0CCFDFF2B06D11F4B1D4A40F213111C480FF0C3FD0133538008AB13E90F008DE80F0094F90030072B20DDA268538833B9124B154A40F26A
:403E4000211112480FF0AEFD4FF6FF718B4206D1114B104A4FF491710C480FF0A3FD013B9BB253803BB994F90030083B0B4A52F82330204698479DE80F0084E80F0009B076
:403E800030BD00BFC0B4010030BD0200E8BD020000BE020024BD0200E8B401001CD802002DE9F04190B007460D469046444A01460CA803F01FFC0E9B002B57D000241DE065
:403EC0001CB140490CA803F00FFE04AE224629463046FFF767FF002302933B4B0193009643462A46394608A804F010FD08A90CA803F0C0FD08A803F029FC0134AB68DB8844
:403F00009C42DDDB0CAC3149204603F0EDFD08AE94E80F0086E80F0095F90030072B20DDAA68538833B92A4B2A4A40F221112A480FF038FD4FF6FF718B4206D1274B254AC5
:403F40004FF4917124480FF02DFD013B9BB253803BB995F90030083B214A52F823302846984708AB0FCB85E80F0026E095F90030072B20DDAA68538833B9154B154A40F2FB
:403F8000211115480FF00EFD4FF6FF718B4206D1124B104A4FF491710F480FF003FD013B9BB253803BB995F90030083B0C4A52F823302846984701232B7010B0BDE8F08197
:403FC00050BE020054BE020058BE020060BE0200C0B4010024BD0200E8BD0200E8B401001CD8020030B589B00C46002204A8FFF7D9FE9DF91030072B14DD069A538833B968
:40400000204B214A4FF4897120480FF0CBFCFF2B06D11F4B1C4A40F213111C480FF0C2FC0133538008AB13E90F008DE80F0094F90030072B20DDA268538833B9114B154A36
:4040400040F2211111480FF0ADFC4FF6FF718B4206D1114B0F4A4FF491710C480FF0A2FC013B9BB253803BB994F90030083B0B4A52F82330204698479DE80F0084E80F0001
:4040800009B030BDC0B4010030BD0200E8BD020000BE020024BD0200E8B401001CD8020070B50E468568EB88A9888B4203D30631FFF7E6FC58B9AB68EC88621CEA8003EBEF
:4040C000041496E80F0084E80F00002070BD012070BD00BF70B588B00C46154691F90030072B46D101466846FFF79AFB029E002E00F03B812A0104F11001B0680FF0F0FC0B
:40410000012303E01A010021A1540133AB42F9DDF5809DE80F0008AD05E90F0094F90030072B20DDA268538833B9914B914A40F2211191480FF036FC4FF6FF718B4206D15A
:404140008E4B8C4A4FF491718B480FF02BFC013B9BB253803BB994F90030083B884A52F823302046984708AB13E90F0084E80F00FBE0012A50D191F91030042B4CD18A69E5
:404180006846FFF70FFE9DF90030072B14DD029A538833B9764B7B4A4FF4897176480FF001FCFF2B06D1784B764A40F2131172480FF0F8FB013353809DE80F0008AD05E9C1
:4041C0000F0094F90030072B20DDA268538833B9674B684A40F2211167480FF0E3FB4FF6FF718B4206D1654B624A4FF4917162480FF0D8FB013B9BB253803BB994F900301C
:40420000083B5F4A52F823302046984708AB13E90F0084E80F00A8E0022D40F0A28094F91030042B40F09D8094F92030042B40F09880A368DE88A369002B00DA3344002BAD
:4042400067DBF61AA36A9E42A8BF1E46002E60DB324601466846FFF7E3FA029B002B00F08480002523E0A2692A44214604A8FFF799FD9DF91030072B14DD069A538833B92F
:404280003B4B404A4FF489713B480FF08BFBFF2B06D13D4B3B4A40F2131137480FF082FB0133538004A96846FFF7FAFE0135B542D9DB9DE80F0008AD05E90F0094F9003016
:4042C000072B20DDA268538833B9294B294A40F2211129480FF066FB4FF6FF718B4206D1264B244A4FF4917123480FF05BFB013B9BB253803BB994F90030083B204A52F861
:4043000023302046984708AB13E90F0084E80F002BE094F90030072B20DDA268538833B9134B144A40F2211113480FF03BFB4FF6FF718B4206D1114B0E4A4FF491710E488C
:404340000FF030FB013B9BB253803BB994F90030083B0B4A52F82330204698470123237003E02321094804F009FC08B070BD00BFC0B4010024BD0200E8BD0200E8B4010024
:404380001CD8020030BD020000BE02002CBE020010B50C4610312046FFF782FE0023237410BD00BF10B404468968CB8833B9036043608360C3600123037008E08A68013BFB
:4043C0009BB2CB8002EB03130FCB84E80F00204610BC704730B589B0002A33D10C466846FFF7E0FF9DE80F0008AD05E90F0094F90030072B20DDA268538833B9144B154A02
:4044000040F2211114480FF0CDFA4FF6FF718B4206D1124B0F4A4FF491710F480FF0C2FA013B9BB253803BB994F90030083B0C4A52F823302046984708AB13E90F0084E8DE
:404440000F0003E02421074804F098FB09B030BDC0B4010024BD0200E8BD0200E8B401001CD8020064BE0200F0B585B004468F68FD883DB90023036043608360C3600123EA
:40448000037012E0D7F808E09EE80F008DE80F006A1E92B2FA8012010EF1100170460FF095FB9DE80F0084E80F00204605B0F0BD30B589B0002A33D10C466846FFF7D4FF2D
:4044C0009DE80F0008AD05E90F0094F90030072B20DDA268538833B9144B154A40F2211114480FF05FFA4FF6FF718B4206D1124B0F4A4FF491710F480FF054FA013B9BB262
:4045000053803BB994F90030083B0C4A52F823302046984708AB13E90F0084E80F0003E02621074804F02AFB09B030BDC0B4010024BD0200E8BD0200E8B401001CD8020079
:404540008CBE0200F8B5174685680C1E03DAEB881C4401343BD4A9888C4201DB611C05E0EB88994201D8013100E0002111B1FFF787FA70BBEA88944209DAAB68601C121BF8
:40458000120103EB041103EB00100FF01FFBAE6806EB041697E80F0086E80F00EB8801339BB2EB809C4216DB013B0AE0A86819014618002242507260B260F2600122425423
:4045C00013449C42F2DC0134EC800020F8BD0520F8BD0120F8BD0020F8BD00BF08B50A460021FFF7AFFF08BD10B50C4610312046FFF7F4FF0023237410BD00BF2DE9F04133
:4046000084B004468F68161E01DAFB881E44002E02DBFD88AE4207DB002323606360A360E360012323701BE0D7F808C00CEB061E9EE80F000DF1100808E90F00013DADB254
:40464000FD80AE4207DA711CAA1B12010CEB011170460FF0BBFA04AB13E90F0084E80F00204604B0BDE8F08170B588B00C4604AD8A692846FFF7C2FF95E80F008DE80F0027
:4046800094F90030072B20DDA268538833B9124B124A40F2211112480FF084F94FF6FF718B4206D10F4B0D4A4FF491710C480FF079F9013B9BB253803BB994F90030083BE6
:4046C000094A52F82330204698479DE80F0084E80F0008B070BD00BFC0B4010024BD0200E8BD0200E8B401001CD8020070B58668B068F58800EB051526E000F1100490F9FF
:404700000030072B1FDD8268538833B9114B124A40F2211111480FF045F94FF6FF718B4206D10F4B0C4A4FF491710C480FF03AF9013B9BB2538033B990F90030083B094A4D
:4047400052F8233098472046A842D6D30023F38070BD00BFC0B4010024BD0200E8BD0200E8B401001CD8020008B50846FFF7BEFF08BD00BF70B506460D460024B268D38811
:404780009C4203DAA968C888844203DBAA68D088181A70BD9368200189680144184406F087F908B90134E9E770BD00BF2DE9F0478468E3881BB90B601360BDE8F087914651
:4047C0008A46D4F808804746012514E0A0682E014146304406F06CF9002802DAA36803EB0608A0683946304406F062F9002801DDA76837440135E3889D42E7DBCAF80080F6
:40480000C9F80070BDE8F08770B58EB00C460023089309930A930B9301238DF820300222014604A8FEF7FCFF0CAA0DA92046FFF7BDFF0D9B0BB908AB0D930C9B0BB908AB80
:404840000C930D9B93F90020072A14DD9A68538833B9334B334A4FF4897133480FF0A2F8FF2B06D1314B2F4A40F213112E480FF099F8013353800C9B93F90020072A14DD40
:404880009A68538833B9264B264A4FF4897126480FF088F8FF2B06D1244B224A40F2131121480FF07FF80133538004AD0D9A00212846FFF7F3F80C9A01212846FFF7EEF832
:4048C00095E80F008DE80F0094F90030072B20DDA268538833B9124B154A40F2211112480FF060F84FF6FF718B4206D1114B104A4FF491710C480FF055F8013B9BB25380CA
:404900003BB994F90030083B0B4A52F82330204698479DE80F0084E80F000EB070BD00BFC0B4010030BD0200E8BD020000BE020024BD0200E8B401001CD8020030B587B036
:404940000C4604AA05A92046FFF730FF059B3BBB94F90030072B20DDA268538833B9344B344A40F2211134480FF01CF84FF6FF718B4206D1314B2F4A4FF491712E480FF0B3
:4049800011F8013B9BB253803BB994F90030083B2B4A52F82330204698470123237045E093F90020072A14DD9A68538833B9204B244A4FF4897120480EF0F4FFFF2B06D164
:4049C000214B204A40F213111B480EF0EBFF01335380059B0FCB8DE80F0094F90030072B20DDA268538833B9114B124A40F2211111480EF0D7FF4FF6FF718B4206D10F4B82
:404A00000C4A4FF491710C480EF0CCFF013B9BB253803BB994F90030083B094A52F82330204698479DE80F0084E80F0007B030BDC0B4010024BD0200E8BD0200E8B40100EA
:404A40001CD8020030BD020000BE020030B587B00C4604AA05A92046FFF7A8FE049B3BBB94F90030072B20DDA268538833B9344B344A40F2211134480EF094FF4FF6FF7150
:404A80008B4206D1314B2F4A4FF491712E480EF089FF013B9BB253803BB994F90030083B2B4A52F82330204698470123237045E093F90020072A14DD9A68538833B9204B97
:404AC000244A4FF4897120480EF06CFFFF2B06D1214B204A40F213111B480EF063FF01335380049B0FCB8DE80F0094F90030072B20DDA268538833B9114B124A40F221116D
:404B000011480EF04FFF4FF6FF718B4206D10F4B0C4A4FF491710C480EF044FF013B9BB253803BB994F90030083B094A52F82330204698479DE80F0084E80F0007B030BDB5
:404B4000C0B4010024BD0200E8BD0200E8B401001CD8020030BD020000BE020070B504469668F288FEF75CFEA5684DB3F2881201B168A8680EF0B4FFF088E880AB6803EB69
:404B800000101BE003F1100193F90020072A14DD9A68538833B90B4B0B4A4FF489710B480EF000FFFF2B06D1094B074A40F2131106480EF0F7FE013353800B468342E1D308
:404BC000204670BDC0B4010030BD0200E8BD020000BE020010B584B00C460A4601466846FFF7BCFF94F90030072B20DDA268538833B9124B124A40F2211112480EF0D2FE14
:404C00004FF6FF718B4206D10F4B0D4A4FF491710C480EF0C7FE013B9BB253803BB994F90030083B094A52F823302046984704AB13E90F0084E80F0004B010BDC0B401005E
:404C400024BD0200E8BD0200E8B401001CD8020000B583B0064A074B19681B23009302F118038432044803F0D7FC03B05DF804FB24BD0200FC140020B4BE020038B50C4698
:404C80008B68DB885D0891F90030072B20DD8A68538833B9104B114A40F2211110480EF081FE4FF6FF718B4206D10E4B0B4A4FF491710B480EF076FE013B9BB253803BB947
:404CC00094F90030083B084A52F823302046984704232370A56038BDC0B40100BCBE0200E8BD0200E8B401001CD8020070B58CB00E468B68DA885208014608A8FEF790FDC4
:404D0000B36800939A680192DD8802EB0515029505AB9DE8070083E807001FE004F120030693214608A8FFF7BBF994F90030072B14DDA268538833B9224B234A4FF4897146
:404D400022480EF02FFEFF2B06D1214B1E4A40F213111E480EF026FE01335380069CAC42DCD30CAB13E90F008DE80F0096F90030072B20DDB268538833B9124B154A40F2A2
:404D8000211112480EF00EFE4FF6FF718B4206D1114B104A4FF491710C480EF003FE013B9BB253803BB996F90030083B0B4A52F82330304698479DE80F0086E80F000CB050
:404DC00070BD00BFC0B40100C8BE0200E8BD020000BE0200BCBE0200E8B401001CD80200F0B58DB00F468B68DA885208014608A8FEF716FDBB6800939A680192DE8802EBD1
:404E00000616029605AB9DE8070083E8070021E004F12003069304F11005294608A8FFF73FF994F91030072B14DDA269538833B9224B234A4FF4897122480EF0B3FDFF2BEC
:404E400006D1214B1E4A40F213111E480EF0AAFD01335380069CB442DAD30CAB13E90F008DE80F0097F90030072B20DDBA68538833B9124B154A40F2211112480EF092FDB5
:404E80004FF6FF718B4206D1114B104A4FF491710C480EF087FD013B9BB253803BB997F90030083B0B4A52F82330384698479DE80F0087E80F000DB0F0BD00BFC0B4010076
:404EC000C8BE0200E8BD020000BE0200BCBE0200E8B401001CD8020010B50C468B68DB885B0827D091F90030072B20DD8A68538833B9244B244A40F2211124480EF052FD51
:404F00004FF6FF718B4206D1214B1F4A4FF491711E480EF047FD013B9BB253803BB994F90030083B1B4A52F82330204698470223237010BD91F90030072B20DD8A68538884
:404F400033B9104B104A40F2211110480EF02AFD4FF6FF718B4206D10D4B0B4A4FF491710A480EF01FFD013B9BB253803BB994F90030083B074A52F823302046984703234F
:404F8000237010BDC0B40100BCBE0200E8BD0200E8B401001CD802002DE9F04F95B080460F469146594A014610A802F0A3FB129B002B00F08180BB6808939A680992B3F8D9
:404FC00006A002EB0A1ACDF828A00DAB08AA07CA83E80700012638E01EB94D4910A802F083FD05F120030E9308AC00260296DFF840B1CDF804B000954B463A4641462046EA
:4050000003F084FC214610A802F034FD204602F09DFB404910A802F067FD05F1100304AD0296CDF804B000934B463A464146284603F06CFC95E80F0084E80F00214610A84F
:4050400002F018FD204602F081FB0E9D5545C3D310AC3149204602F047FD08AD94E80F0085E80F0097F90030072B20DDBA68538833B92A4B2A4A40F221112A480EF092FCC9
:405080004FF6FF718B4206D1274B254A4FF4917124480EF087FC013B9BB253803BB997F90030083B214A52F823303846984708AB0FCB87E80F0026E097F90030072B20DDCC
:4050C000BA68538833B9154B154A40F2211115480EF068FC4FF6FF718B4206D1124B104A4FF491710F480EF05DFC013B9BB253803BB997F90030083B0C4A52F8233038461E
:40510000984701233B7015B0BDE8F08F4CBF020054BE020050BF020054BF0200C0B40100BCBE0200E8BD0200E8B401001CD8020058BE020030B587B00D468A680092936860
:405140000193D48803EB041402949DE8070006AB03E9070008E000F12003049305F11001103005F0A5FC20B10498A042F3D3002300E001233BB395F90030072B20DDAA68DA
:40518000538833B9244B254A40F2211124480EF009FC4FF6FF718B4206D1224B1F4A4FF491711F480EF0FEFB013B9BB253803BB995F90030083B1C4A52F823302846984704
:4051C00003232B7026E095F90030072B20DDAA68538833B9104B114A40F2211110480EF0E1FB4FF6FF718B4206D10E4B0B4A4FF491710B480EF0D6FB013B9BB253803BB918
:4052000095F90030083B084A52F823302846984702232B7007B030BDC0B40100BCBE0200E8BD0200E8B401001CD8020070B588B00D468A68009293680193D68803EB061677
:4052400002969DE8070008AB03E9070023E004F12003069305F1100104F1100005F028FCC8B994F90030072B19DDA268538833B9374B384A4FF4897137480EF093FBFF2BDE
:4052800006D1364B334A40F2131133480EF08AFB0133538003E0069CB442D8D300246CB394E80F008DE80F0095F90030072B20DDAA68538833B9264B294A40F221112648CA
:4052C0000EF070FB4FF6FF718B4206D1254B244A4FF4917120480EF065FB013B9BB253803BB995F90030083B1F4A52F82330284698479DE80F0085E80F0026E095F900308B
:40530000072B20DDAA68538833B9114B144A40F2211111480EF046FB4FF6FF718B4206D1104B0F4A4FF491710B480EF03BFB013B9BB253803BB995F90030083B0A4A52F8E7
:4053400023302846984701232B7008B070BD00BFC0B40100C8BE0200E8BD020000BE0200BCBE0200E8B401001CD8020070B5044616460023036043608360C3600D2303701A
:405380000C20FDF73DFCA0B105467001FDF738FC18B92846FDF78EFD0BE001226A8048222A7041226A707600AE800022EA80A860A560204670BD00BF70B588B00C4604AD79
:4053C000002201462846FFF7D1FF95E80F008DE80F0094F90030072B20DDA268538833B9114B124A40F2211111480EF0DBFA4FF6FF718B4206D10F4B0C4A4FF491710C4859
:405400000EF0D0FA013B9BB253803BB994F90030083B094A52F82330204698479DE80F0084E80F0008B070BDC0B40100BCBE0200E8BD0200E8B401001CD8020008B5FEF74E
:40544000CBFA08BD70B50E4683689C68DD8804EB051505E03146204605F02AFB20B12034AC42F7D3002070BD204670BD10B50C4610312046FFF7E6FF38B394F90030072BC0
:4054800020DDA268538833B9244B254A40F2211124480EF087FA4FF6FF718B4206D1224B1F4A4FF491711F480EF07CFA013B9BB253803BB994F90030083B1C4A52F823304F
:4054C000204698470323237010BD94F90030072B20DDA268538833B9104B114A40F2211110480EF05FFA4FF6FF718B4206D10E4B0B4A4FF491710B480EF054FA013B9BB2E7
:4055000053803BB994F90030083B084A52F82330204698470223237010BD00BFC0B40100BCBE0200E8BD0200E8B401001CD80200F8B507460E461546FFF784FF60B931464F
:405540003846FEF7ADFD034600285AD129463846FEF7A6FD034654E0044690F90030072B1FDD8268538833B9274B284A40F2211127480EF017FA4FF6FF718B4206D1254BFF
:40558000224A4FF4917122480EF00CFA013B9BB2538033B990F90030083B1F4A52F82330984796E80F0084E80F0004F1100094F91030072B1FDD8268538833B9124B134A30
:4055C00040F2211112480EF0EDF94FF6FF718B4206D1104B0D4A4FF491710D480EF0E2F9013B9BB2538033B994F91030083B0A4A52F823309847103495E80F0084E80F0018
:4056000000231846F8BD00BFC0B40100BCBE0200E8BD0200E8B401001CD80200F0B587B00F468B6900939A680192DE8802EB061602969DE8070006AB03E907003BE004F1B6
:405640002003049304F110052A4621463846FFF76FFF94F90030072B14DDA268538833B9174B184A4FF4897117480EF09BF9FF2B06D1164B134A40F2131113480EF092F911
:405680000133538094F91030072B14DDAA68538833B90B4B0B4A4FF489710B480EF082F9FF2B06D1094B074A40F2131106480EF079F901335380049CB442C0D307B0F0BD18
:4056C000C0B40100C8BE0200E8BD020000BE0200022A0CD110B50C4601F1200210312046FFF726FF0023237484F8203010BD704710B5044608461146FFF7A4FE20B11030E9
:405700000FC884E80F0006E0002323606360A360E36001232370204610BD00BF012A50D130B589B00C4601F1100204A8FFF7E0FF9DF91030072B14DD069A538833B9214BCC
:40574000214A4FF4897121480EF02CF9FF2B06D11F4B1D4A40F213111C480EF023F90133538008AB13E90F008DE80F0094F90030072B20DDA268538833B9124B154A40F25B
:40578000211112480EF00EF94FF6FF718B4206D1114B104A4FF491710C480EF003F9013B9BB253803BB994F90030083B0B4A52F82330204698479DE80F0084E80F0009B067
:4057C00030BD7047C0B40100C8BE0200E8BD020000BE0200BCBE0200E8B401001CD80200F0B585B005460F4611463846FFF72AFE38B900232B606B60AB60EB6001232B70A6
:405800003BE0064690F90030072B1FDD8268538833B91B4B1B4A40F221111B480EF0C2F84FF6FF718B4206D1184B164A4FF4917115480EF0B7F8013B9BB2538033B990F9E3
:405840000030083B124A52F82330984706F110030FCB8DE80F00BA68D388023B9BB2D380926802EB0312921B06F1200130460EF0ADF99DE80F0085E80F00284605B0F0BD60
:40588000C0B40100BCBE0200E8BD0200E8B401001CD8020070B588B00C4604AD01F110022846FFF79DFF95E80F008DE80F0094F90030072B20DDA268538833B9114B124AD4
:4058C00040F2211111480EF06DF84FF6FF718B4206D10F4B0C4A4FF491710C480EF062F8013B9BB253803BB994F90030083B094A52F82330204698479DE80F0084E80F00FA
:4059000008B070BDC0B40100BCBE0200E8BD0200E8B401001CD8020008B5FEF7E7FE08BD08B50846FFF7F8FF08BD00BFF8B58368DC888A68D288944219D10F4606469C68D2
:4059400000250DE021463846FFF77CFD014680B1103104F1100005F0ABF860B901352034B368DB88B5EB530FECDB0020F8BD0120F8BD0120F8BD0120F8BD00BF70B50446FC
:4059800015469368DA885208FFF7F0FCA6685EB3AD68EA881201A968B0680EF0A1F8EB88F380AB68E88803EB00101BE003F1100193F90020072A14DD9A68538833B90B4B26
:4059C0000B4A4FF489710B480DF0ECFFFF2B06D1094B074A40F2131106480DF0E3FF013353800B468342E1D3204670BDC0B40100C8BE0200E8BD020000BE0200F0B58DB007
:405A00000F460A46014608A8FFF7B8FFBB6900939A680192DE8802EB0616029605AB9DE8070083E807003BE004F12003069304F110052A46214608A8FFF77AFD94F9003095
:405A4000072B14DDA268538833B92F4B2F4A4FF489712F480DF0A6FFFF2B06D12D4B2B4A40F213112A480DF09DFF0133538094F91030072B14DDAA68538833B9224B234AF0
:405A80004FF4897122480DF08DFFFF2B06D1214B1E4A40F213111E480DF084FF01335380069CB442C0D30CAB13E90F008DE80F0097F90030072B20DDBA68538833B9124BF8
:405AC000154A40F2211112480DF06CFF4FF6FF718B4206D1114B104A4FF491710C480DF061FF013B9BB253803BB997F90030083B0B4A52F82330384698479DE80F0087E877
:405B00000F000DB0F0BD00BFC0B40100C8BE0200E8BD020000BE0200BCBE0200E8B401001CD8020070B588B00C4604AD0A4601462846FFF723FF95E80F008DE80F0094F9A0
:405B40000030072B20DDA268538833B9114B124A40F2211111480DF025FF4FF6FF718B4206D10F4B0C4A4FF491710C480DF01AFF013B9BB253803BB994F90030083B094A04
:405B800052F82330204698479DE80F0084E80F0008B070BDC0B40100BCBE0200E8BD0200E8B401001CD8020000B583B0064A074B19681423009302F118036832044802F029
:405BC0002BFD03B05DF804FBBCBE0200FC14002058BF0200704700BF1F2909DC002901DB8840704711F11F0F04DB49420841704700207047002070478B68002B01DA5B42AC
:405C00008B607047704700BF70B50C468E68CD6800220023304629460DF0FCFC20B1324605F10043C4E9022370BD00BFF0B593B022B18A69931E222B49D800E00A220C4620
:405C4000074608AE0C960E960DF12F030D9300250F951095119564238DF8403089680CA803F088F80E9B1D7004AD32463946284601F040FD95E80F008DE80F0094F900301C
:405C8000072B20DDA268538833B9124B124A40F2211112480DF086FE4FF6FF718B4206D10F4B0D4A4FF491710C480DF07BFE013B9BB253803BB994F90030083B094A52F8E6
:405CC0002330204698479DE80F0084E80F0013B0F0BD00BFC0B4010060BF0200E8BD0200E8B401001CD8020038B50C468B68DD4391F90030072B20DD8A68538833B9114BAE
:405D0000114A40F2211111480DF04CFE4FF6FF718B4206D10E4B0C4A4FF491710B480DF041FE013B9BB253803BB994F90030083B084A52F823302046984704232370A560E5
:405D400038BD00BFC0B4010060BF0200E8BD0200E8B401001CD8020038B50C468B685D4291F90030072B20DD8A68538833B9114B114A40F2211111480DF014FE4FF6FF71F4
:405D80008B4206D10E4B0C4A4FF491710B480DF009FE013B9BB253803BB994F90030083B084A52F823302046984704232370A56038BD00BFC0B4010060BF0200E8BD0200C0
:405DC000E8B401001CD8020038B50C468B698A6892FBF3F103FB112594F90020072A20DDA268538833B9114B114A40F2211111480DF0D8FD4FF6FF718B4206D10E4B0C4A4C
:405E00004FF491710B480DF0CDFD013B9BB253803BB994F90030083B084A52F823302046984704232370A56038BD00BFC0B4010060BF0200E8BD0200E8B401001CD802003C
:405E400038B50C468D698B681D4091F90030072B20DD8A68538833B9104B114A40F2211110480DF09FFD4FF6FF718B4206D10E4B0B4A4FF491710B480DF094FD013B9BB23A
:405E800053803BB994F90030083B084A52F823302046984704232370A56038BDC0B4010060BF0200E8BD0200E8B401001CD8020038B50C468D698B681D4391F90030072BEF
:405EC00020DD8A68538833B9104B114A40F2211110480DF067FD4FF6FF718B4206D10E4B0B4A4FF491710B480DF05CFD013B9BB253803BB994F90030083B084A52F82330E5
:405F00002046984704232370A56038BDC0B4010060BF0200E8BD0200E8B401001CD8020038B50C468D698B685D4091F90030072B20DD8A68538833B9104B114A40F2211117
:405F400010480DF02FFD4FF6FF718B4206D10E4B0B4A4FF491710B480DF024FD013B9BB253803BB994F90030083B084A52F823302046984704232370A56038BDC0B4010036
:405F800060BF0200E8BD0200E8B401001CD80200D0B50C4688680DF065F806460F4694F90030072B20DDA268538833B9114B124A40F2211111480DF0F5FC4FF6FF718B4222
:405FC00006D10F4B0C4A4FF491710C480DF0EAFC013B9BB253803BB994F90030083B094A52F823302046984705232370C4E90267D0BD00BFC0B4010060BF0200E8BD0200BF
:40600000E8B401001CD8020038B50C46D1E902010DF028FB054694F90030072B20DDA268538833B9104B114A40F2211110480DF0B9FC4FF6FF718B4206D10E4B0B4A4FF43B
:4060400091710B480DF0AEFC013B9BB253803BB994F90030083B084A52F823302046984704232370A56038BDC0B4010060BF0200E8BD0200E8B401001CD8020070B50C46A5
:406080008E68CD6805F1004591F90030072B1FDD738833B9124B134A40F2211112480DF081FC4FF6FF718B4206D1104B0D4A4FF491710D480DF076FC013B9BB273803BB935
:4060C00094F90030083B0A4A52F82330204698470523237032462B46C4E9022370BD00BFC0B4010060BF0200E8BD0200E8B401001CD8020038B50C468969A068FFF76CFDA0
:40610000054694F90030072B20DDA268538833B9104B114A40F2211110480DF043FC4FF6FF718B4206D10E4B0B4A4FF491710B480DF038FC013B9BB253803BB994F90030CC
:40614000083B084A52F823302046984704232370A56038BDC0B4010060BF0200E8BD0200E8B401001CD8020038B50C4689694942A068FFF731FD054694F90030072B20DD05
:40618000A268538833B9114B114A40F2211111480DF008FC4FF6FF718B4206D10E4B0C4A4FF491710B480DF0FDFB013B9BB253803BB994F90030083B084A52F8233020465F
:4061C000984704232370A56038BD00BFC0B4010060BF0200E8BD0200E8B401001CD8020070B58AB00C460023ADF824308B688DF8243004AD012309AA0146284601F08CF832
:4062000095E80F008DE80F0094F90030072B20DDA268538833B9124B124A40F2211112480DF0C0FB4FF6FF718B4206D10F4B0D4A4FF491710C480DF0B5FB013B9BB25380B6
:406240003BB994F90030083B094A52F82330204698479DE80F0084E80F000AB070BD00BFC0B4010060BF0200E8BD0200E8B401001CD8020070B58EB006460C46D1E9022390
:40628000CDE900231D4A10210AA80DF051FD06AD0AAA3146284601F02DFA02AE95E80F0086E80F0094F90030072B20DDA268538833B9134B134A40F2211113480DF072FBB2
:4062C0004FF6FF718B4206D1104B0E4A4FF491710D480DF067FB013B9BB253803BB994F90030083B0A4A52F823302046984702AB0FCB84E80F000EB070BD00BF00C00200A5
:40630000C0B4010060BF0200E8BD0200E8B401001CD8020038B50C468B691F2B30D88968012202FA03F3194214BF1546002594F90030072B20DD0A464B8833B9254B264A79
:4063400040F2211125480DF02DFB4FF6FF718B4206D1234B204A4FF4917120480DF022FB013B9BB253803BB994F90030083B1D4A52F823302046984704232370A56038BDE2
:4063800091F90030072B20DD8A68538833B9114B114A40F2211111480DF004FB4FF6FF718B4206D10E4B0C4A4FF491710B480DF0F9FA013B9BB253803BB994F90030083BEB
:4063C000084A52F8233020469847042323700023A36038BDC0B4010060BF0200E8BD0200E8B401001CD8020038B591F91030042B36D18869002801DB012500E00025002394
:4064000003E08A6802FB05F501338342F9DB0C4691F90030072B20DD8A68538833B9114B114A40F2211111480DF0BCFA4FF6FF718B4206D10E4B0C4A4FF491710B480DF00B
:40644000B1FA013B9BB253803BB994F90030083B084A52F823302046984704232370A56038BD00BFC0B4010060BF0200E8BD0200E8B401001CD8020000B583B0064A074B20
:4064800019681123009302F10C035032044802F0C3F803B05DF804FB60BF0200FC14002004C0020000B583B0064A074B19680723009302F174039032044802F0ADF803B06F
:4064C0005DF804FB60BF0200FC1400200CC0020038B50C468B681B790BB1032500E0022594F90030072B20DDA268538833B9104B104A40F2211110480DF054FA4FF6FF714A
:406500008B4206D10D4B0B4A4FF491710A480DF049FA013B9BB253803BB994F90030083B074A52F8233020469847257038BD00BFC0B4010014C00200E8BD0200E8B40100D8
:406540001CD8020070B588B00D468B6804AC08330FCB84E80F008DE80F0095F90030072B20DDAA68538833B9114B124A40F2211111480DF017FA4FF6FF718B4206D10F4BC2
:406580000C4A4FF491710C480DF00CFA013B9BB253803BB995F90030083B094A52F82330284698479DE80F0085E80F0008B070BDC0B4010014C00200E8BD0200E8B40100D7
:4065C0001CD8020070B588B00D468B6804AC18330FCB84E80F008DE80F0095F90030072B20DDAA68538833B9114B124A40F2211111480DF0D7F94FF6FF718B4206D10F4B73
:406600000C4A4FF491710C480DF0CCF9013B9BB253803BB995F90030083B094A52F82330284698479DE80F0085E80F0008B070BDC0B4010014C00200E8BD0200E8B4010097
:406640001CD802002DE9F04190B007460D46904600231A4601460CA800F05EFE0E9B002B5AD0002426E01CB140490CA801F03CFA34B9AB6804AE08330FCB86E80F0005E0DB
:40668000AB6804AE18330FCB86E80F0000230293374B019304AB009343462A46394608A802F034F908A90CA801F0E4F908A801F04DF80134012CD6DD08AC10AB13E90F0074
:4066C00084E80F0095F90030072B20DDAA68538833B9284B284A40F2211128480DF062F94FF6FF718B4206D1254B234A4FF4917122480DF057F9013B9BB253803BB995F938
:406700000030083B1F4A52F823302846984708AB0FCB85E80F0026E095F90030072B20DDAA68538833B9134B134A40F2211113480DF038F94FF6FF718B4206D1104B0E4A0A
:406740004FF491710D480DF02DF9013B9BB253803BB995F90030083B0A4A52F823302846984701232B7010B0BDE8F08144C0020058BE0200C0B4010014C00200E8BD020028
:40678000E8B401001CD8020030B58DB00C4691F9001007293ED104F1100304AD0394012102913F4901910093134622460146284602F0ACF895E80F000CAD05E90F0094F96C
:4067C0000030072B20DDA268538833B9354B364A40F2211135480DF0E5F84FF6FF718B4206D1334B304A4FF4917130480DF0DAF8013B9BB253803BB994F90030083B2D4A0A
:4068000052F82330204698470CAB13E90F0084E80F0043E0A06804F110052946083004F047F90028D4BF012000200DDCA1681831284604F03DF9A3681B790BB1C00F03E04D
:406840000028CCBF0020012008B1032500E0022594F90030072B20DDA268538833B9114B114A40F2211111480DF09CF84FF6FF718B4206D10E4B0C4A4FF491710B480DF0DD
:4068800091F8013B9BB253803BB994F90030083B084A52F823302046984725700DB030BD48C00200C0B4010014C00200E8BD0200E8B401001CD80200F8B5054617461E4644
:4068C0000023036043608360C3600C2303702820FCF796F9A86098B10446012343805223037041234370069B037100F1080E97E80F008EE80F00183496E80F0084E80F00F9
:406900002846F8BD38B50446826892F90830072B21DD02F1080081684B8833B9234B244A40F2211123480DF03DF84FF6FF75AB4206D1214B1E4A4FF491711E480DF032F87D
:40694000013B9BB24B8033B992F90830083B1B4A52F823309847A26802F1180092F91830072B1FDD81684B8833B9104B104A40F2211110480DF016F84FF6FF75AB4206D139
:406980000D4B0B4A4FF491710A480DF00BF8013B9BB24B8033B992F91830083B074A52F823309847A068FCF785FA38BDC0B4010014C00200E8BD0200E8B401001CD802007C
:4069C00010B504468068083004F008F9A068183004F004F910BD00BF38B504460D46806889680831083004F063F860B9A068A9681831183004F05CF830B9AB681B79A268DE
:406A00001079181A38BD38BD38BD00BF00B583B0064A074B19680623009302F10C032432044801F0F9FD03B05DF804FB14C00200FC14002054C00200002304E0054AD25C04
:406A4000824204D00133062BF8D9002070470120704700BF5CC0020070B4024608B1467800E0002600254FF0FF301CE01378012B0DD106E0D418247A8C4200D1E81801336C
:406A800000E00023B2F90240A342F3DB07E0137A994204DB547AA14201DC6818C01AB2F902301D445268002AE0D136B1002802DA6FF0004001E04FF0FF3070BC704700BFCF
:406AC00030B400241BE0B0F9025063198B4209DD091B0378012B02D10144087A13E0007A084410E0426842B90378012B03D1013D2844007A07E0407A05E01C4610460028B1
:406B0000E1D14FF0FF3030BC704700BF10B503E04468FCF7CFF920460028F9D110BD00BF2DE9F84F8B689E689D8842B1012D0ADD33785E2B0BD04FF00009C8460AE04FF0CF
:406B40000009C84606E04FF00009C84602E04FF00109C846002752E009F10203AB421FDA4C4609F10103F35C2D2B19D10A20FCF747F8824688B10223037080F80180E21842
:406B8000B35C16F809105B1A013343800023436016F809300372B35C437209F1030422E009F1010407E0A31CAB4203DA631CF35C2D2B02D00134AC42F5DBC9EB040B0BF1D1
:406BC0000800FCF71DF8824668B10123037080F80180A0F802B0002343605A4606EB090108300CF07DFF47B13A4600E01A465368002BFBD1C2F804A000E05746A146A9459F
:406C0000AADB3846BDE8F88F2DE9F04F83B0022A09D104468B4691F910300B2B03D191F920300B2B06D00E21264801F0A7FF4FF0FF3043E001221031FFF772FF0190002879
:406C40003BD000220BF120012046FFF769FF8046DBF808309D689F880024A2461BE02E19295D0198FFF7F8FE011E13DBB8F1000F0AD1611C3A1B294430460CF0A7FF013F79
:406C8000013C4FF0010A05E04046FFF719FF30704FF0010A0134A742E1DC0198FFF736FF4046FFF733FFDBF808309F80DBF808309B680022DA55504600E0002003B0BDE826
:406CC000F08F00BF1CBE02002DE9F84F0C46022A0CD191F91030042B08D191F920300B2B04D18D6901F1200A012618E0032A10D194F91030042B0CD194F92030042B08D10E
:406D000094F930300B2B04D1A569A66A04F1300A05E00C21214801F031FFBDE8F88FA3689F88DAF80820B2F80490002D00DA3D44C5EB0708464500DD4646002D03DBBD4297
:406D400001DC002E05DA0B21154801F017FFBDE8F88F07EB0901891B01319868FCF70EF98346C0B105EB09007119C6EB08020132594458440CF02AFFDAF808304A469968FD
:406D80000BEB05000CF0ACFEA3684F44BE1B9E80A368C3F808B0BDE8F88F00BF54C1020064C1020038B50C468B689D8891F90030072B20DD8A68538833B9114B114A40F214
:406DC000211111480CF0EEFD4FF6FF718B4206D10E4B0C4A4FF491710B480CF0E3FD013B9BB253803BB994F90030083B084A52F823302046984704232370A56038BD00BFAE
:406E0000C0B4010064C00200E8BD0200E8B401001CD8020038B50C468B689B880BB9032500E0022594F90030072B20DDA268538833B9104B104A40F2211110480CF0B2FD5C
:406E40004FF6FF718B4206D10D4B0B4A4FF491710A480CF0A7FD013B9BB253803BB994F90030083B074A52F8233020469847257038BD00BFC0B4010064C00200E8BD0200C7
:406E8000E8B401001CD8020038B50C468B689B681D7891F90030072B20DD8A68538833B9104B114A40F2211110480CF07BFD4FF6FF718B4206D10E4B0B4A4FF491710B484E
:406EC0000CF070FD013B9BB253803BB994F90030083B084A52F823302046984704232370A56038BDC0B4010064C00200E8BD0200E8B401001CD80200D0B50C468B68986852
:406F00000CF06EFD06460F4694F90030072B20DDA268538833B9114B114A40F2211111480CF040FD4FF6FF718B4206D10E4B0C4A4FF491710B480CF035FD013B9BB25380B5
:406F40003BB994F90030083B084A52F823302046984705232370C4E90267D0BDC0B4010064C00200E8BD0200E8B401001CD8020070B588B00C468B6804AD9A6801462846AC
:406F800003F03AFD95E80F008DE80F0094F90030072B20DDA268538833B9124B124A40F2211112480CF0FEFC4FF6FF718B4206D10F4B0D4A4FF491710C480CF0F3FC013BA3
:406FC0009BB253803BB994F90030083B094A52F82330204698479DE80F0084E80F0008B070BD00BFC0B4010064C00200E8BD0200E8B401001CD8020038B522B18B699A1E54
:40700000222A01D938BD0A230C468A681946906803F0FAFD054694F90030072B20DDA268538833B9104B114A40F2211110480CF0B9FC4FF6FF718B4206D10E4B0B4A4FF40E
:4070400091710B480CF0AEFC013B9BB253803BB994F90030083B084A52F823302046984704232370A56038BDC0B4010064C00200E8BD0200E8B401001CD8020010B50C46F1
:40708000FFF7C2FD30BB94F90030072B20DDA268538833B9104B114A40F2211110480CF081FC4FF6FF718B4206D10E4B0B4A4FF491710B480CF076FC013B9BB253803BB92B
:4070C00094F90030083B084A52F82330204698470123237010BD00BFC0B4010064C00200E8BD0200E8B401001CD8020038B50C468A689188A369002B02DB8B4202DA03E05A
:407100000B4401E04FF0FF33002B2ADB9268D55C94F90030072B20DDA268538833B9254B254A40F2211125480CF03CFC4FF6FF718B4206D1224B204A4FF491711F480CF0DA
:4071400031FC013B9BB253803BB994F90030083B1C4A52F823302046984704232370A56038BD94F90030072B20DDA268538833B9104B114A40F2211110480CF013FC4FF617
:40718000FF718B4206D10E4B0B4A4FF491710B480CF008FC013B9BB253803BB994F90030083B084A52F82330204698470123237038BD00BFC0B4010064C00200E8BD020044
:4071C000E8B401001CD8020038B5012A04D10C4691F910300B2B04D00E211F4801F0CEFC38BD8B68988889698A88824207DC896898680CF043FCB0FA80F0400900E0002056
:4072000008B1032500E0022594F90030072B20DDA268538833B9114B114A40F2211111480CF0C0FB4FF6FF718B4206D10E4B0C4A4FF491710B480CF0B5FB013B9BB25380D6
