:400000000080002011000000150001001500010008B5044B1A6803F53F5302331A6010F01FF800BFFA46004010B5054C237833B9044B13B10448AFF300800123237010BD24
:40004000A889FF1F00000000AC240200084B10B51BB108490848AFF300800848036803B910BD074B002BFBD0BDE81040184700BF00000000AC89FF1FAC240200C880FF1F8E
:400080000000000010B58C6811F07CFF00232374FF226274A37410BD2DE9F04F8BB00C468D680023069307930893099301238DF818309A4240F3BD808046164691F91030E9
:4000C000042B40F0B8808F6991F92030042B40F0B4808B6A01931301CA18CB56062B09D1D2F808907B480AF049FE814505D14FF0010904E04FF0000901E04FF00009A6F122
:40010000020AC9EB0A0A6B7C9F4201D1022300E000232A7C032A08BF43F0010302222A745FFA87FB85F811B0012B00F0888093420ED0CBB911F026FFBAF1000FCCBF002196
:400140000121584611F018FE074600287DD10CE0BAF1000FCCBF00210121584611F04CFE0746002873D100E00027BAF1000F0FDC1EE04FEA0A13E218E356042B60D1107AB2
:4001800011F08CFE0746002863D10AF1010A01E04FF0030AC9EB06039A45EADD019B002B64DD0121584611F027FE0746002852D103232B74019B581C02F058FD064600285F
:4001C0004AD089F0010A019BCAEB030A83460BE00BF101030093012011F08CFE8BF800000AF1FF3ADDF800B0BAF1000FF0DCB9F1000F0AD1019B002B07DD0BF1010A0020E8
:4002000011F078FE8BF80000D34600238BF80030019B3246414606A807F0D2FCB9F1000F24D111F01FFE074600232B74FF236B741CE0002704E0002702E0002700E00027AD
:40024000254809F06FF9002606E0002604E0002602E0002600E0002611F004FE00232B74FF236B7416B1304602F05AFEAF7402AD0AAB13E90F0085E80F0094F90030072B1C
:4002800020DDA268538833B9144B154A40F2211114481AF0B1FB4FF6FF718B4206D1124B0F4A4FF491710F481AF0A6FB013B9BB253803BB994F90030083B0C4A52F82330A3
:4002C0002046984702AB0FCB84E80F000BB0BDE8F08F00BFC4240200CC240200E8240200B824020000250200102502000049030030B585B00C4603238A680146684608F036
:4003000027FC9DE80F0084E80F0000231374FF215174937405B030BD70B50C468E6811F015FE0546B07494F90030072B20DDA268538833B9104B114A40F2211110481AF02A
:400340005BFB4FF6FF718B4206D10E4B0B4A4FF491710B481AF050FB013B9BB253803BB994F90030083B084A52F823302046984704232370A56070BDE8240200B8240200D7
:400380000025020010250200004903002DE9F84F0C46D1F80880B2F1000978DD91F91030042B76D18D694FEA0913CA18CB56062B08D1966854480AF0E1FC864205D14FF0AC
:4003C000010A04E04FF0000A01E04FF0000AB9F1010F08DD94F920300B2B04D1A36AB3F804909F6804E0CAEB090909F1FF39002798F811309D4201D1022300E0002398F883
:400400001020042A08BF43F00103042288F81020EDB288F81150012B3DD0022B0CD043B911F0B0FD0021284611F0A6FC0546B0BB00E0002500261BE00021284611F0DCFCA8
:40044000054660BBF6E73FB107F1010B387811F025FD05465F4609E0B31C1B01E218E356042B19D1107A11F019FD0546BDB90136B145E8DCBAF1000F19D111F0F3FC054630
:40048000002388F81030FF2388F811300FE0002502E0002500E000251C4809F043F811F0E1FC002388F81030FF2388F8113088F8125094F90030072B20DDA268538833B97B
:4004C000134B144A40F2211113481AF095FA4FF6FF718B4206D1114B0E4A4FF491710E481AF08AFA013B9BB253803BB994F90030083B0B4A52F82330204698470423237071
:40050000A560BDE8F88F00BFC42402002C250200E8240200B824020000250200102502000049030038B5044611F0AAFA124B1A681249204608F086FA0546114B114A0146BB
:40054000204608F0E9FA104B104A2946204608F0E3FA0F4B0F4A2946204608F0DDFA0E4B0E4A2946204608F0D7FA0D4B0D4A2946204608F0D1FA38BDB41500204C2502009D
:40058000F10200005025020099000000282603008D03000054250200190300005C250200850000006425020008B5024801F0C8F908BD00BF5013002008B5024801F0C0F9BC
:4005C00008BD00BF0414002008B5024801F0B8F908BD00BFB814002008B5024801F0D8F908BD00BF5013002008B5024801F0D0F908BD00BF0414002008B5024801F0C8F920
:4006000008BD00BFB814002008B58B68186901F031FA08BD08B58B68186901F025FA08BD70B584B00C462AB191F91030042B16D18D6900E00125002D11DB022D0FDC042376
:40064000A2680146684608F083FA9DE80F0084E80F00194BB42101FB0535156129E0174808F060FF94F90030072B20DDA268538833B9134B134A40F2211113481AF0BCF95D
:400680004FF6FF718B4206D1104B0E4A4FF491710D481AF0B1F9013B9BB253803BB994F90030083B0A4A52F82330204698470123237004B070BD00BF5013002080250200D9
:4006C000E8240200742502000025020010250200004903002DE9F04188B080460C468B681E698D69304601F021FA40B90023049305930693079301238DF8103011E08542FF
:4007000000DB0546681C02F0B1FA07462A460146304601F0E3F92B463A46414604A807F04FFA08AB13E90F008DE80F0094F90030072B20DDA268538833B9124B124A40F2DD
:40074000211112481AF058F94FF6FF718B4206D10F4B0D4A4FF491710C481AF04DF9013B9BB253803BB994F90030083B094A52F82330204698479DE80F0084E80F0008B053
:40078000BDE8F081E8240200742502000025020010250200004903002DE9F04188B00C468B681D698E69AB7A3BB124212B4808F039FC284601F05EF917E00746284601F040
:4007C000B5F9864211DC701C02F050FA804660B132460146284601F081F9031E05DB4246394604A807F0ECF907E00023049305930693079301238DF8103008AB13E90F00BC
:400800008DE80F0094F90030072B20DDA268538833B9134B134A40F2211113481AF0ECF84FF6FF718B4206D1104B0E4A4FF491710D481AF0E1F8013B9BB253803BB994F9A9
:400840000030083B0A4A52F82330204698479DE80F0084E80F0008B0BDE8F081AC250200E8240200742502000025020010250200004903002DE9F04188B007460C468B68BB
:400880001E69304601F062F900284AD00546002807DA2421384808F0C5FB304601F0EAF83FE0013002F0E2F98046002839D02A460146304601F012F904AE2B46424639462C
:4008C000304607F07DF996E80F008DE80F0094F90030072B20DDA268538833B9274B284A40F2211127481AF087F84FF6FF718B4206D1254B224A4FF4917122481AF07CF8A5
:40090000013B9BB253803BB994F90030083B1F4A52F82330204698479DE80F0084E80F0026E094F90030072B20DDA268538833B9124B134A40F2211112481AF05DF84FF62E
:40094000FF718B4206D1104B0D4A4FF491710D481AF052F8013B9BB253803BB994F90030083B0A4A52F82330204698470123237008B0BDE8F08100BFAC250200E824020018
:400980007425020000250200102502000049030038B50C468B68186991F910300B2B2ED18B699A88996801F073F8054694F90030072B20DDA268538833B9254B254A40F2B4
:4009C000211125481AF018F84FF6FF718B4206D1224B204A4FF491711F481AF00DF8013B9BB253803BB994F90030083B1C4A52F823302046984704232370A56038BD91F97D
:400A00000030072B20DD8A68538833B9104B114A40F22111104819F0EFFF4FF6FF718B4206D10E4B0B4A4FF491710B4819F0E4FF013B9BB253803BB994F90030083B084A08
:400A400052F82330204698470123237038BD00BFE82402007425020000250200102502000049030030B589B0454C464B0693464B0593464B0493464B0393464B0293464BCE
:400A80000193464B0093464B20220221204600F0B9FF444812F05CF8434812F081F8434B0693434B0593434B0493434B0393434B0293434B0193434B0093434B20220221A3
:400AC00004F1B40000F09EFF404811F027FB404811F050FB3F4B06933F4B05933F4B04933F4B03933F4B02933F4B01933F4B00933F4B2022022104F5B47000F083FF3D485E
:400B000011F036FC3C4811F05FFC3C4B1A683C49002007F097FF04463A4B3B4A0146002007F0FAFF394B3A4A2146002007F0F4FF384B394A2146002007F0EEFF374D2B46DD
:400B4000374A2146002007F0E7FF364B364A2146002007F0E1FF2B46344A2146002007F0DBFF334B334A2146002007F0D5FF324B324A2146002007F0CFFF09B030BD00BFF3
:400B800050130020F117010031180100FD170100451801000D1801008D180100B517010099170100A9050000D90500005D2001009D20010069200100B120010079200100E4
:400BC000BD2001002120010005200100B9050000E9050000B1220100F1220100BD22010005230100CD220100112301007522010059220100C9050000F9050000B415002024
:400C0000D425020021060000502502009907000028260300D5060000DC250200910900005425020075080000EC2502005C26030015060000F42502000906000004260200B1
:400C400010B501F00F0408B144F02004204610F067FD002012F066F944F0100010F060FD012012F05FF9204610F05AFD012012F059F910BD38B505460C460909FFF7E0FFC3
:400C800004F00F012846FFF7DBFF352012F04AF938BD00BF08B501210020FFF7EBFF4FF4BE6012F03FF9024B00221A705A7008BDC489FF1F08B5C3B2084A1370C9B25170F4
:400CC000032B0AD8132908D8054B1B5C194461F07F01C9B20020FFF7CDFF08BDC489FF1F142602000E4B1B78032B18D80C4B5B78132B14D870B5C3F114068E4200DB0E46BA
:400D00003344074A5370002406E0451C01780120FFF7B0FF01342846A642F6DC70BD7047C489FF1F08B5084B1B78032B0AD8064B5B78132B06D80133034A5370C1B2012007
:400D4000FFF798FF08BD00BFC489FF1F0B4B1B78032B0CD97047094B5B78132B0CD80133064A53700120FFF785FF204600E010B5441C01780029EED110BD00BFC489FF1F56
:400D800008B521B1074B1A781043187004E0054A137823EA00001070024B19780020FFF769FF08BDCC80FF1F08B5142012F0A4F803210020FFF744FF052012F09DF8032123
:400DC0000020FFF73DFFC82012F0ACF803210020FFF736FF352012F0A5F802210020FFF72FFF352012F09EF828210020FFF742FF08210020FFF73EFF01210020FFF73AFFCF
:400E00004FF4076012F08EF806210020FFF732FF01210420FFF7B4FF08BD00BF38B50D4600F00700C10041F040010020FFF722FF002404E0295D0120FFF71CFF0134072CD6
:400E4000F8DD38BD08B509F0FBFA08BD08B50B46896A9869FFF72EFF08BD00BF08B5FFF719FF08BD08B589690120FFF789FF08BD08B589690220FFF783FF08BD70B54C4B22
:400E80004C4A0021084607F047FE4B4B4B4A0021084607F041FE4A4B4A4A0021084607F03BFE494B494A0021084607F035FE484B484A0021084607F02FFE474B474A00219D
:400EC000084607F029FE464B464A0021084607F023FE454B454A0021084607F01DFE444B444A0021084607F017FE434B434A0021084607F011FE00224149104607F0A2FD7E
:400F00000446404D404B2A460146002007F004FE3E4B3F4A2146002007F0FEFD3D4E3E4B32462146002007F0F7FD3C4B3C4A2146002007F0F1FD00223A49104607F082FD0C
:400F40000446394B2A460146002007F0E5FD374B32462146002007F0DFFD354B354A2146002007F0D9FD00223349104607F06AFD0446324B2A460146002007F0CDFD304B20
:400F8000304A2146002007F0C7FD2F4B2F4A2146002007F0C1FD2E4B2E4A2146002007F0BBFD2D4B2D4A0021084607F0B5FD70BDD91300002426030029130000302603001D
:400FC0004D0E00003C2603001D1300004C2603000D130000582603005D0E000064260300710E000070260300650E000080260300FD1200009026030069130000A0260300B2
:40100000AC26030050250200C912000075160000B426030028260300651700006D15000054250200BC26030095120000D114000049140000C0260300CC2603004512000054
:40104000A1110000D026030029110000DC260300CD100000E426030061100000F026030010B586B072B6002403E03D2007F0CEFF01344E2CF9DD0A2007F0C8FF02F090F8E0
:4010800009F070FD02AB03AA04A905A802F050F8029B0093039B049A05990A4808F042FAFF23059304A809F04FFF0499642303FB01F3059A93FBF2F3034808F033FA62B6EF
:4010C00006B010BDFC2603002C27030038B58D688A69002A24DB4FF4166303FB02F2114B83FB0213D217C2EBA313B3F5803F17DA98B26882AA8A02FB03F3002B02DA03F559
:40110000FF437F33DC132B8A2BB910F0F1FBA0B210F0F4FB38BD11F0A3FCA0B211F0A6FC38BD00BFD34D621038B58D6891F91030042B02D0052B03D00BE0886940010CE07D
:401140000022154BD1E9060119F006F819F0B4FA03E0124808F0E6F938BD00281BDBB0F5004F18DC6A8AA88202FB00F3002B02DA03F5FF437F33DC132B8A33B9104610F078
:40118000B7FBA0B210F0BAFB38BD104611F068FCA0B211F06BFC38BD0000E0404C27030070B58E6891F91030042B02D0052B06D008E0886918F06AFF04460D4606E0D1E90E
:4011C000064503E01E4808F0ADF970BD002200232046294619F032FA68BB002200232046294619F021FA50B922462B4612A1D1E9000119F0DBF819F05FFA024600E0002208
:40120000B2F5803F17DA90B27082B38A03FB02F3002B02DA03F5FF437F33DC13338A2BB910F066FBA0B210F069FB70BD11F018FCA0B211F01BFC70BD00000000804F42412E
:401240006C27030030B585B00C4606238A680146684607F07DFC9DE80F0084E80F0094F91030042B03D1238B012B08D903E0084808F058F90AE0064808F054F906E0A26869
:401280001382002353824FF48043938205B030BD9427030030B585B00C4602238A680146684607F055FC9DE80F0084E80F0094F91030042B02D1B4F9182001E04FF0FF3252
:4012C000A3681A8205B030BD30B585B00C4604238A680146684607F03BFC9DE80F0084E80F0094F91030042B01D1A26901E04FF0FF32A3681A6105B030BD00BF08B50B46CF
:401300008A6A91689869FFF789FD08BD08B58B6999889868FFF7E6FC08BD00BF08B58869FFF700FD08BD00BF08B5087E10F0C0FA08BD00BF70B50024094D0BE0094E36F89B
:4013400014304BB10021284609F058F936F814301D440134032CF1DD09F08AF970BD00BF202602001826020038B50C4610F0D0F9054694F90030072B20DDA268538833B94F
:40138000104B114A40F22111104819F035FB4FF6FF718B4206D10E4B0B4A4FF491710B4819F02AFB013B9BB253803BB994F90030083B084A52F82330204698470423237077
:4013C000A56038BDE82402001826030000250200102502000049030038B50C460EF0F0FE054694F90030072B20DDA268538833B9104B114A40F22111104819F0FDFA4FF610
:40140000FF718B4206D10E4B0B4A4FF491710B4819F0F2FA013B9BB253803BB994F90030083B084A52F823302046984704232370A56038BDE82402001826030000250200AF
:40144000102502000049030038B50C468B68187C11F0C4F811F086F8002011F08FF811F09FF8054694F90030072B20DDA268538833B9114B114A40F22111114819F0BCFA6C
:401480004FF6FF718B4206D10E4B0C4A4FF491710B4819F0B1FA013B9BB253803BB994F90030083B084A52F823302046984704232370A56038BD00BFE82402001826030092
:4014C00000250200102502000049030000000000D0B50C468B68187C11F080F811F042F8002011F04BF811F05BF818F0CFFD18A3D3E9002318F030FE06460F4694F9003076
:40150000072B20DDA268538833B9134B134A40F22111134819F070FA4FF6FF718B4206D1104B0E4A4FF491710D4819F065FA013B9BB253803BB994F90030083B0A4A52F8C2
:4015400023302046984705232370C4E90267D0BDFCA9F1D24D62403FE82402001826030000250200102502000049030070B50C468B681B698D692E1C18BF0126013B042B4F
:4015800046D8DFE803F0030E12161A00002011F06DFA1DB1042011F055FA02E0012011F051FA304611F02AF80AE0304611F044F806E0304611F060F802E0304611F07CF82F
:4015C00094F90030072B20DDA268538833B9244B244A40F22111244819F00EFA4FF6FF718B4206D1214B1F4A4FF491711E4819F003FA013B9BB253803BB994F90030083B41
:401600001B4A52F82330204698470323237070BD91F90030072B20DD8A68538833B9104B104A40F22111104819F0E6F94FF6FF718B4206D10D4B0B4A4FF491710A4819F0DC
:40164000DBF9013B9BB253803BB994F90030083B074A52F82330204698470223237070BDE82402001826030000250200102502000049030010B50C468B681B698A6912B1F1
:40168000012A02D03CE0022000E00C20023B032B36D8DFE803F00205080B10F0BBFF07E010F0D6FF04E010F0F3FF01E011F010F894F90030072B20DDA268538833B9244B34
:4016C000244A40F22111244819F096F94FF6FF718B4206D1214B1F4A4FF491711E4819F08BF9013B9BB253803BB994F90030083B1B4A52F82330204698470323237010BD91
:4017000094F90030072B20DDA268538833B9104B104A40F22111104819F06EF94FF6FF718B4206D10D4B0B4A4FF491710A4819F063F9013B9BB253803BB994F90030083BB9
:40174000074A52F82330204698470223237010BDE82402001826030000250200102502000049030038B50C468B681B69023B032B3BD8DFE803F002060A0E10F057FF054609
:401780000AE010F071FF054606E010F08DFF054602E010F0A9FF054694F90030072B20DDA268538833B9254B254A40F22111254819F022F94FF6FF718B4206D1224B204A31
:4017C0004FF491711F4819F017F9013B9BB253803BB994F90030083B1C4A52F823302046984704232370A56038BD91F90030072B20DD8A68538833B9104B114A40F221111C
:40180000104819F0F9F84FF6FF718B4206D10E4B0B4A4FF491710B4819F0EEF8013B9BB253803BB994F90030083B084A52F82330204698470123237038BD00BFE8240200CB
:401840001826030000250200102502000049030008B5024800F01CF908BD00BF5013002008B5FFF7F5FF08BD08B562B62C4810F0B3F80EF04FFC10F0B3FC10F085F811F094
:401880003BF9012011F0DEF80FF086FF01F034F8FFF78AFA10F092FE10F056FE4FF40041204808F00BFE0020FFF7DCF80020FEF739FE002000F0C4FB002000F043FEFFF7C4
:4018C000DDFA1E21184807F0ADFB00210846FFF7F1F91648FFF73AFA05210120FFF7EAF91348FFF733FA01F00FF8B0B9FFF7D2F91721104807F096FBFFF71CFD0F210320C2
:40190000FFF7D8F90C48FFF721FA01210846FFF737FA1021094807F085FB01F015F8E4E7450E0000C889FF1FB0270300D0270300E4270300F42703000C28030014280300EA
:4019400038B50546D0F8A830984795F8903018421DD0AB88EC88A4B21C1BA4B2042C0DD904240BE0D5F8AC102868EB889BB25A1C92B2EA80C05C8847013CA4B2002CF1D100
:40198000EB889BB2AA88934201D301232B7238BD38B50446D0F8A43098472FE094F89130034228D0E589ADB26B1C9BB2E381D4F8B030984725442874E3899BB27F2B0DD8AE
:4019C000E28992B2A3899BB29A4214D1E3899BB2013B9BB2E3810123A3720CE0A3899BB23BB9E3899BB2013B9BB2E3810123A37201E00023E381D4F8A43098470028CDD13A
:401A000038BD00BFF8B504460F4616461D46B422002119F069F9012323720A23E37284F8907084F89160C4F89450069BC4F89830079BC4F89C30089BC4F8A0300A9BC4F8E2
:401A4000A430099BC4F8A8300B9BC4F8AC300C9BC4F8B030A847D4F89C3003B19847D4F8A03003B19847F8BD08B5D0F89C30984708BD00BF10B50446D0F8A030984711F0A0
:401A80008BFC0023A381E381A37211F089FC10BD037A13F0FF0F1BD0E2B110B50446016082800123C38000230372D0F8AC3008789847637A13F0010F0ED14021002011F0BB
:401AC000C1FA237A13F0FF0FF7D0E08880B210BD0020704700207047002010BD70B504460D46164622B91FE04021002011F0AAFAA28992B2E3899BB29A42F5D03046A3892B
:401B00009BB2691C5A1C92B223441B7C2B707F2A00D90022A281013804D0E3899BB20D469A42ECD1301A70BD002070BDC3899BB2828992B2934203D3808980B2181A70478C
:401B4000808980B21B1A03F18000704710B483899BB2C489A4B2827AD2B11DE05A1C92B203441B7CDBB2C17A8B420DD183899BB29A4203D9808980B2101A0FE0808980B2E3
:401B8000121A02F1800009E000237F2A00D81346A342E3D1002001E04FF0FF3010BC704708B5017742770362029A4262039A8262049AC262059A0263069A4263079A826370
:401BC000089AC263099A02640A9A4264984708BD2DE9F0420446894616461D46079F636B9847237F1842FAD0E36A9847236B9847636C9847C4F8009066602FB1069BB3421F
:401C0000B8BF3346A36002E0069BF318A3600023E36025610DB91D4600E0069D65610FB9764200E00026A6610BE0A26B2368591C216018789047E3680133E360627F9342DD
:401C400011DAE26863689A42EFDB08E0A36B00209847E3680133E360627F934203DAE268A3689A42F2DB636A9847A36A9847BDE8F08200BF2DE9F0478EB007460C468B68EB
:401C80001D6991F910300B2B23D191F92020042A1FD18E6A701C00F0E9FF8046002860D0A36999689A8800230193009603462846FFF78EFF6B6B98472B7F0342FAD0002301
:401CC00008F806303346424639460AA805F078FF4FE00A2B45D194F92030042B41D1A369B3F80680D4F828A05046C245B8BF404600F0BCFF8146A0B3002611E0324604F1C4
:401D0000100106A802F084F89DF91830042B03D0484601F005F924E0089B09F8063001364645EBDB00230193CDF800A04B46424649462846FFF74CFF6B6B98472B7F184287
:401D4000FAD0002309F80A3002AD53464A463946284605F035FF95E80F000EAD05E90F0007E000230A930B930C930D9301238DF8283006AD0EAB13E90F0085E80F0094F904
:401D80000030072B20DDA268538833B9124B134A40F22111124818F02FFE4FF6FF718B4206D1104B0D4A4FF491710D4818F024FE013B9BB253803BB994F90030083B0A4AD3
:401DC00052F823302046984706AB0FCB84E80F000EB0BDE8F08700BFE82402002828030000250200102502000049030070B584B00C4632B191F91030042B15D18D69013DB6
:401E000000E0002585B90423A2680146684606F09FFE9DE80F0084E80F0005EBC505EB0016490B44136126E094F90030072B20DDA268538833B9124B124A40F22111124896
:401E400018F0DAFD4FF6FF718B4206D10F4B0D4A4FF491710C4818F0CFFD013B9BB253803BB994F90030083B094A52F82330204698470123237004B070BD00BFC80900203F
:401E8000E8240200282803000025020010250200004903002DE9F0418AB080460D468B681C698E69701C00F0E1FE40B90023069307930893099301238DF8183015E00746FA
:401EC00000210191009603460A462046FFF780FE636B9847237F1842FAD00023BB5533463A46414606A805F06BFE02AC0AAB13E90F0084E80F0095F90030072B20DDAA680C
:401F0000538833B9124B134A40F22111124818F073FD4FF6FF718B4206D1104B0D4A4FF491710D4818F068FD013B9BB253803BB995F90030083B0A4A52F823302846984749
:401F400002AB0FCB85E80F000AB0BDE8F08100BFE824020028280300002502001025020000490300F0B583B00C468B681D6991F910300B2B0ED18B6999689A880023019374
:401F800000932846FFF724FE6B6B98472B7F1842FAD021E01746042B1ED1104600F066FE0646C8B1002305E05A1C04EB02118968F1541346BB42F7DB0023019300933A46F2
:401FC00031462846FFF704FE6B6B98472B7F1842FAD0304600F0A4FF94F90030072B20DDA268538833B9114B114A40F22111114818F002FD4FF6FF718B4206D10E4B0C4A38
:402000004FF491710B4818F0F7FC013B9BB253803BB994F90030083B084A52F82330204698470123237003B0F0BD00BFE824020028280300002502001025020000490300A8
:4020400010B58AB01C4B08931C4B07931C4B06931C4B05931C4B04931C4B03931C4B02931C4B01931C4B00931C4B042210211C48FFF796FD1B4B1A681B49002006F0E2FC88
:4020800004461A4B1A4A0146002006F045FD194B194A2146002006F03FFD184B184A2146002006F039FD174B174A2146002006F033FD0AB010BD00BFB9270100A127010016
:4020C000952701007D27010065270100592701004D27010005270100F926010055280100C8090020B415002034280300ED1D000050250200951E000028260300651F0000EE
:4021000054250200751C00003828030010B50C4691F90030072B20DD8A68538833B9124B124A40F22111124818F066FC4FF6FF718B4206D10F4B0D4A4FF491710C4818F0EB
:402140005BFC013B9BB253803BB994F90030083B094A52F8233020469847042323704FF48063A36010BD00BFE82402004428030000250200102502000049030010B50C46D6
:4021800091F90030072B20DD8A68538833B9124B124A40F22111124818F02EFC4FF6FF718B4206D10F4B0D4A4FF491710C4818F023FC013B9BB253803BB994F90030083BBA
:4021C000094A52F8233020469847042323704FF40063A36010BD00BFE82402004428030000250200102502000049030010B50C4691F90030072B20DD8A68538833B9114B7F
:40220000114A40F22111114818F0F6FB4FF6FF718B4206D10E4B0C4A4FF491710B4818F0EBFB013B9BB253803BB994F90030083B084A52F82330204698470423237010238E
:40224000A36010BDE8240200442803000025020010250200004903002DE9F04188B00C46012A4FDD054691F91030042B4AD191F92030042B46D18E698F6A781C00F0F6FC5A
:402280008046002868D03A4606F1804101F5004118F050FC002308F8073004AE3B4642462946304605F08CFC96E80F008DE80F0094F90030072B20DDA268538833B9284B7D
:4022C000284A40F22111284818F096FB4FF6FF718B4206D1254B234A4FF49171224818F08BFB013B9BB253803BB994F90030083B1F4A52F82330204698479DE80F0084E8F1
:402300000F0029E01B4807F00DF994F90030072B20DDA268538833B9114B124A40F22111114818F069FB4FF6FF718B4206D10F4B0C4A4FF491710C4818F05EFB013B9BB2FB
:4023400053803BB994F90030083B094A52F82330204698470123237008B0BDE8F08100BFE824020044280300002502001025020000490300502803002DE9F0470C46012AB1
:4023800076DD91F91030042B72D191F920300B2B6ED18D698B6A9F889E6810F0DFFA05F00F08C8F11008B84500DDB846B8F1100F11D0C8EB07070BE006F1010A05F1010942
:4023C000A9B2307810F062FA00287FD156464D46B8F10108F0D529090BE001F10108C9B2304610F0C1FA002870D1A5F11007103641463D460F2FF0D809010BE006F101083B
:402400004D1C89B2307810F041FA00285ED1013F46462946002FF1DCA36A9D8894F90030072B20DDA268538833B93F4B3F4A40F221113F4818F0E0FA4FF6FF718B4206D15F
:402440003C4B3A4A4FF49171394818F0D5FA013B9BB253803BB994F90030083B364A52F823302046984704232370A560BDE8F087324807F057F894F90030072B20DDA26871
:40248000538833B9284B294A40F22111284818F0B3FA4FF6FF718B4206D1264B234A4FF49171234818F0A8FA013B9BB253803BB994F90030083B204A52F8233020469847B9
:4024C000042323700023A360BDE8F0871C4807F029F894F90030072B20DDA268538833B9114B124A40F22111114818F085FA4FF6FF718B4206D10F4B0C4A4FF491710C4809
:4025000018F07AFA013B9BB253803BB994F90030083B094A52F8233020469847042323700023A360BDE8F087E82402004428030000250200102502000049030050280300FC
:402540006C28030038B5044610F09CF9124B1A681249204606F076FA0546114B114A0146204606F0D9FA104B104A2946204606F0D3FA0F4B0F4A2946204606F0CDFA0E4B8F
:402580000E4A2946204606F0C7FA0D4B0D4A2946204606F0C1FA38BDB4150020842803007D210000B82B0300ED2100008C2803000D2100009828030059220000282603006F
:4025C000792300005425020070B4024600E02A46114B83FB0134CB17C3EBA4031C4603EB83035D004B1B551C303313702146002CEDD100235370034609E01C4614F8015B9F
:40260000114611F801691E70157023460A469A42F3D870BC704700BF6766666600B583B00023009301930822064968460DF074FD18B105480FF018F9FEE7002003B05DF828
:4026400004FB00BF18260200AC280300034BC3F88430002283F88120704700BF100A0020014B93F881007047100A0020024BD3F88400C01A704700BF100A0020004870476C
:40268000100A002010B504460EF0C6F80028FBD020460EF04BF810BDF0B585B02748FFF7F1FF00242746264E1BE02648FFF7EAFF214601A8FFF788FFFFF7E4FF2248FFF76C
:4026C000E1FF354635F8021B01A8FFF77DFFFFF7D9FF1E48FFF7D6FF338802331F4401342E46032CE1DD642101FB07F1002902DA01F57F41FF310C141548FFF7C3FF39461A
:4027000001A8FFF761FFFFF7BDFF1248FFF7BAFF4FF4803101A8FFF757FFFFF7B3FF0E48FFF7B0FF214601A8FFF74EFFFFF7AAFF0A48FFF7A7FF002005B0F0BDD0280300F6
:4027400018260200042D0300E0280300E8280300F0280300F8280300FC2803000029030038B50DF06FFE30B10DF066FE88B30DF091FF012038BD0DF05FFE60B30EF040F81C
:4027800060B30EF023F80546FFF770FFC0F18004A54200DC2C46A1B2114BD3F884000EF047F80DE00E4AD2F88430591CC2F884101B780A2B03D10122094B83F88120013CA6
:4027C000002CEFD1064BD3F8843000221A70022038BD012038BD4FF0FF3038BD002038BD100A00202DE9F047804689460E4624E0FFF73CFF024620B9FFF7B2FF00281CDA41
:4028000020E0864201DD054600E03546541BAA462A460E49404618F08DF9002C09DD0B4F22467919384618F0FBF93A19C7F8842001E0FFF70BFFD044761B002ED8DC484686
:40284000BDE8F0870020BDE8F08700BF100A002070B5C2B00546244C40AB2068616803C30023083407E042AA02EB430232F8082C1AB114440133032BF5DD032B2FDC6119E7
:402880001A4A91422DD842AA02EB430323F8085C0822154940A80DF03FFCD0B114480EF0E3FFFEE7FF2D01D8294601E04FF480716846FFF797FF06460246214668460DF08B
:4028C0002BFC18B10B480EF0CFFFFEE7AD1BADB23444002DE6D1FFF7B9FE002002E0012000E0022042B070BD1826020018260300AC2803000829030008B5012100200DF0E8
:4029000063FDFFF7A3FE08BD10B5002412E0601040EA241000F001000EF0CAFFFFF720FFFFF79EFE40B90DF04BFC28B10A2010F0E3FA0134FF2CEADD00200EF0B9FFB4F510
:40294000807018BF012010BD10B5FFF77FFEFFF707FFFFF785FE0028F9D0FFF78FFE424919F0C0FB044618B94048FFF78BFE72E03F4918F0BBFA48B93E48FFF783FE3E48F5
:40298000FFF780FE3D48FFF77DFE64E03C49204618F0ACFA18B93B48FFF774FE5BE03A49204618F0A3FA38B93248FFF76BFE642010F0A2FA10F098FA3449204618F096FA54
:4029C00000284BD03249204618F090FA28B9FFF725FE2848FFF756FE3DE02E49204618F085FA50BB204919F07DFB18B92A48FFF749FE30E018F022F80446B0F5803F03D9BB
:402A00002648FFF73FFE26E0FFF720FE2448FFF739FEA0B2FFF71CFF012806D0022808D0C8B91648FFF72EFE15E01E48FFF72AFE11E01D48FFF726FE0DE01C49204618F034
:402A400055FA28B9FFF728FE0C48FFF71BFE02E01748FFF717FEFFF7F9FD78E71548FFF711FE002010BD00BFA42803001C2903002C290300342903003C2903008C29030013
:402A8000942903009C290300B8290300C02903006826030054250200E0290300E8290300002A0300182A03003C2A0300642A0300702A0300C829030008B5030C2BD1C0F31A
:402AC000CF139BB11A0A03D11B029BB2092200E00122190B02D104321B019BB2990B02D102329B009BB2A2EBD33300E01023D3F1100301D0DA1C00E00422D04000F007009E
:402B000000EBC300092B07D9044B054A4FF49371044817F071FF4F2008BD00BF0C2B0300882A03002C2B030038B50C468B680BBB0546086820F00300FFF7BEFF6268031D8C
:402B400005EB83035A606368B3B9C10800F00700802343FA00F06A18937923EA0003937153B94FF4004343FA01F1AB8823EA0103AB8001E04A685A6063680BB1A2689A60B4
:402B800038BD00BFF8B505460C460B6823F001020A6023F00303043BC950086820F00300FFF78AFF4F2806D9164B174A40F23D11164817F021FFC30800F007074FF4004147
:402BC00041FA03F6A9883143A98080223A412B4499790A439A710023A360031D05EB83035B68636003B19C60043005EB80004460204650F80C2B22F00302103AFF2118F035
:402C000073F8F8BD642B0300942A03002C2B030038B531B9114B124A4FF4D271114817F0EBFE0546104B1B68B3B921F003040E4B18604FF4AC72002118F056F82C60A4F5EE
:402C4000AE7205F5AC7142F00203C5F8583105238B502846FFF796FF38BD00BF802B0300A42A03002C2B0300980A0020F8B57F4B1E680430434203F00303C4180F2C00D8B7
:402C800010242046FFF718FF031D06EB83035F684FB13B6823F003039C4204D8C10800F007023D4684E00130031D06EB83035D68C10800F00702002D7AD1731898798023EA
:402CC00043FA02F2013A024093B29BB102F0FF0372B11A0903D11B01DBB2052200E00122980902D102329B00DBB2A2EBD31248E0082246E0B2884FF400430B41591E114026
:402D000036D099B10B0A03D1090289B2092300E001230A0B02D10433090189B28A0B02D10233890089B2A3EBD13300E01023194633449B7973B11A0903D11B01DBB20522A5
:402D400000E00122980902D102329B00DBB2A2EBD31216E0082214E03B6823F003039C4205D839463046FFF7DFFE3D4647E07F68002FF1D11C223E490120FEF769FD0024D4
:402D800072E002EBC1004F2806D93A4B3A4A40F215213A4817F030FE031D06EB83035D6835B9374B344A40F21721344817F024FE2B6823F003039C4206D9324B2E4A40F2AC
:402DC0001A212E4817F018FE6B68043006EB800043606B688BB9802343FA02F27018837923EA0202827152B94FF4004343FA01F1B38823EA0101B18001E000229A602B68AC
:402E000023F003039C4206D91F4B204A40F27B111A4817F0F1FD1B1B102B07D92B512B6803F0030323432B60291900E0002139B10B6843F002030B603046FFF7A3FE06E053
:402E40002B6823F00303EA5842F00202EA502A6842F001022C4644F8042B22F00302043AAA21204617F040FF2046F8BD980A0020B42A0300642B0300D42A03002C2B0300D9
:402E80008C2B03009C2B0300C02B0300E42A03002DE9F041214B1E68434203F00303C71806F5AC7400E02C46206820F003016518635823F003032B44326832449342F2D386
:402EC00010F0010F25D104398F4222D821463046FFF72AFE216821F00302D21B102A07D82B6823F003030B4443F0010323600DE02B683B447A4205EB0208AB502368DB1B3E
:402F0000236021463046FFF73DFE4446201DBDE8F0813846FFF7AAFEBDE8F081980A00202DE9F04104462A4B1F68061F50F8045C25F0030506EB0508735913F0010F15D1F5
:402F400041463846FFF7F0FD464506D3214B224A40F29111214817F04FFD735923F0030354F8042C134444F8043C02E023F00203735154F8043C13F0020F21D154F8085C69
:402F80002B6813F0010F06D0154B164A40F28A21124817F031FD29463846FFF7C5FDAE4206D80C4B0C4A40F291110C4817F024FD54F8043C23F003032A6813442B6000E000
:402FC000354629463846FFF7DDFDBDE8F08100BF980A0020DC2B0300F02A03002C2B0300EC2B0300FC2A03002DE9F84305464A4BD3F80080071F0C1D634203F003031C4475
:403000000F2C00D8102455F8046C26F00306B4421FD907EB0609BB5913F0010F65D123F0030333449C4260D849464046FFF77CFD4F4506D3394B3A4A40F29111394817F026
:40304000DBFCBB5923F0030355F8042C134445F8043C55F8046C26F0030607EB0609B44206D9314B314A40F27B112E4817F0C4FC331B102B09D93B5155F8043C03F00303DA
:40308000234345F8043C3C4400E0002444B1236843F002032360BB5913F0010F1BD106E0BB5943F00203BB512846BDE8F88349464046FFF739FDA14506D8184B184A40F293
:4030C0009111184817F098FCBB5923F0030322681344236002E023F00203BB5121464046FFF750FD2846BDE8F8830846FFF7BEFD044668B155F8042C22F00302043A29463B
:4031000017F018FD2846FFF70BFF2046BDE8F8830020BDE8F88300BF980A0020DC2B0300F02A03002C2B0300C02B0300E42A0300F0B41A4C25682C680460002008601060B7
:403140004FF0FF30186005F5AC74D5F8586106F001061DE0206810F0010F05D120F0030017683844106004E020F003000F6838440860206800F00100B04205D018680130A0
:403180001860266806F00106206820F003000444286828448442DDD3F0BC7047980A00202DE9F04385B0684B1E68684806F0BAF906F5AC77336833443A463146644806F0B9
:4031C000B1F93168A1F5AC72624806F0ABF9102302930193042300934FF4AC7211465E4806F0A0F95D4806F09DF95D4806F09AF9002403E05B4806F095F901343F2CF9DD8E
:40320000594806F08FF9002534E0B288AA40C2F3C0322946554806F085F9002414E073199979A140C1F3C011514806F07BF9514B234003D5013B63F003030133032B02D12B
:403240004D4806F06FF90134072CE8DD00240BE004EBC503502B09D8043306EB83035968464806F05FF90134072CF1DD3E4806F059F901350A2DC8D9414806F053F95CE0A8
:403280003946404806F04EF93B6823F00301C3F34002009203F001030A463B4806F042F93B6813F0010F30D023F00305043D1F2D00D9202507F104084346002407E003F183
:4032C00001091978314806F02DF901344B46AC42F5DB03E02E4806F025F901341F2CF9DD2C4806F01FF900240DE008F1010998F80010A1F120035E2B00D92E21264806F057
:4033000011F90134C846AC42EFDB386810F0010F0CD120F00300FFF7CFFBBB687A68009200F00702C1081D4806F0FCF80E4806F0F9F83B6823F003031F44336833449F4231
:403340009ED305B0BDE8F083980A0020002C0300202C03003C2C0300582C0300A42C0300CC2C0300F42C0300142A0300F82C0300082D030003000080042D03000C2D030059
:40338000102D0300742D03002C2D03004C2D0300542D03002C410300582D03005C2D03002DE9F04F89B0129FDDF84C809C68E488002C57D01E4693468A4681460024254643
:4033C0004EE0B36899682A018B188A560A2A08D1CDF8048000975A4651464846FFF7E0FF34E000220292214A019200935B465246494604A805F0DEFC04A9384604F08EFD06
:4034000004439DF91030072B20DD069A538833B9174B184A40F22111174817F0EDFA4FF6FF718B4206D1154B124A4FF49171124817F0E2FA013B9BB253803BB908A810F9C4
:40344000103D083B0E4A52F8233098470135B368DB889D4206DA4146384604F05FFD0443002CAED009B0BDE8F08F00BF342E0300E8240200782D03003C2E030010250200D4
:403480000049030038B50C468B68DD8891F90030072B20DD8A68538833B9114B114A40F22111114817F0A8FA4FF6FF718B4206D10E4B0C4A4FF491710B4817F09DFA013BF0
:4034C0009BB253803BB994F90030083B084A52F823302046984704232370A56038BD00BFE8240200782D03003C2E0300102502000049030010B50C468B68DB883BB391F986
:403500000030072B20DD8A68538833B9244B254A40F22111244817F06FFA4FF6FF718B4206D1224B1F4A4FF491711F4817F064FA013B9BB253803BB994F90030083B1C4A5F
:4035400052F82330204698470223237010BD91F90030072B20DD8A68538833B9104B114A40F22111104817F047FA4FF6FF718B4206D10E4B0B4A4FF491710B4817F03CFAAC
:40358000013B9BB253803BB994F90030083B084A52F82330204698470323237010BD00BFE8240200782D03003C2E030010250200004903002DE9F041884601F110078B688B
:4035C0009E68DD88002406E0394606EB041007F0C3FC10B10134AC42F6DBAC422CDA98F90030072B21DDD8F80820538833B9284B284A40F22111284817F0FEF94FF6FF7157
:403600008B4206D1254B234A4FF49171224817F0F3F9013B9BB253803BB998F90030083B1F4A52F8233040469847042388F80030C8F80840BDE8F08198F90030072B21DDC2
:40364000D8F80820538833B9114B124A40F22111114817F0D1F94FF6FF718B4206D10F4B0C4A4FF491710C4817F0C6F9013B9BB253803BB998F90030083B094A52F8233099
:4036800040469847012388F80030BDE8F08100BFE8240200782D03003C2E0300102502000049030038B50C46FFF784FF94F90030042B01D1032500E0022594F90030072BC2
:4036C00020DDA268538833B90F4B104A40F221110F4817F091F94FF6FF718B4206D10D4B0A4A4FF491710A4817F086F9013B9BB253803BB994F90030083B074A52F823309C
:4037000020469847257038BDE8240200782D03003C2E0300102502000049030070B590B005460C46164600231A4601460CA804F047F80E9B002B72D02EB94D4A294608A852
:4037400004F02CFA0CE004F1100300220292494A0192009333462246294608A805F02AFB08AB01930CAB00932346324621462846FFF716FE9DF92030072B20DD0A9A5388CD
:4037800033B93D4B3D4A40F221113D4817F034F94FF6FF718B4206D13A4B384A4FF49171374817F029F9013B9BB253803BB910A810F9203D083B344A52F82330984704AD48
:4037C00010AB13E90F0085E80F0094F90030072B20DDA268538833B9274B284A40F22111274817F009F94FF6FF718B4206D1254B224A4FF49171224817F0FEF8013B9BB2A0
:4038000053803BB994F90030083B1F4A52F823302046984704AB0FCB84E80F0026E094F90030072B20DDA268538833B9124B134A40F22111124817F0DFF84FF6FF718B42D7
:4038400006D1104B0D4A4FF491710D4817F0D4F8013B9BB253803BB994F90030083B0A4A52F82330204698470123237010B070BD04290300342E0300E8240200782D0300DD
:403880003C2E0300102502000049030070B5044616460023036043608360C3600A2303700C20FFF7E3F998B105463001FFF7DEF918B92846FFF734FB0AE001226A80412230
:4038C0002A7052226A70AE800022EA80A860A560204670BDF0B589B091F910300A2B04D00A21504805F09EFB99E00C468E688F69F288FB881A44014604A8FFF7C7FF069D1E
:40390000002D00F08C80F2881201B168A86817F011F9AB68F088FA881201B96803EB001017F008F9F088FB88184480B2E880AB6803EB00101BE003F1100193F90020072A71
:4039400014DD9A68538833B9374B384A4FF48971374817F051F8FF2B06D1364B334A40F21311334817F048F8013353800B468342E1D304F1100094F91030072B1FDD8268AB
:40398000538833B9284B2C4A40F22111284817F033F84FF6FF718B4206D1284B264A4FF49171234817F028F8013B9BB2538033B994F91030083B224A52F8233098470023DB
:4039C000237408AB13E90F008DE80F0094F90030072B20DDA268538833B9134B164A40F22111134817F008F84FF6FF718B4206D1124B114A4FF491710D4816F0FDFF013BC4
:403A00009BB253803BB994F90030083B0C4A52F82330204698479DE80F0084E80F0009B0F0BD00BF482E0300E8240200842D03003C2E0300542E0300782D030010250200FA
:403A40000049030070B5064683689868DD8800EB051526E000F1100490F90030072B1FDD8268538833B9144B144A40F22111144816F0C2FF4FF6FF718B4206D1114B0F4A3F
:403A80004FF491710E4816F0B7FF013B9BB2538033B990F90030083B0B4A52F8233098472046A842D6D3B468A068FFF739FA2046FFF736FA70BD00BFE8240200782D030026
:403AC0003C2E0300102502000049030038B583689868DD8800EB051504E000F1100407F0D1FA2046A842F8D338BD00BF38B50D4684680901A068FFF777FA18B1A060A58087
:403B0000002038BD012038BDF8B5174686680D1E02DAF388ED1848D4B3889D4204DB691CFFF7E4FF002842D1F288954230DAB1682A0188188B56072B2EDD8468638833B90D
:403B40001C4B1D4A40F221111C4816F055FF4FF6FF7E734506D11A4B174A4FF49171174816F04AFF013B9BB26380ABB98B56083B144A52F8233098470EE0B0681101441809
:403B8000002343506360A360E360012343541A449542F2DC6B1CF380B36803EB051597E80F0085E80F000020F8BD0520F8BD0120F8BD00BFE8240200782D03003C2E0300FA
:403BC000102502000049030030B58DB00C46002A37D1014604A8FFF759FE069B002B00F0EB8004AB0FCB0CAD05E90F0094F90030072B20DDA268538833B9704B704A40F292
:403C00002111704816F0F8FE4FF6FF718B4206D16D4B6B4A4FF491716A4816F0EDFE013B9BB253803BB994F90030083B674A52F82330204698470CAB13E90F0084E80F00D0
:403C4000BAE01346012A4ED191F91020042A4AD18A69002A47DB01466846FFF717FE029B002B00F0A9800023049305930693079301238DF81030A169002904DD04AA01397A
:403C80006846FFF741FF9DE80F000CAD05E90F0094F90030072B20DDA268538833B9474B474A40F22111474816F0A6FE4FF6FF718B4206D1444B424A4FF49171414816F011
:403CC0009BFE013B9BB253803BB994F90030083B3E4A52F82330204698470CAB13E90F0084E80F0068E0022B62D194F91030042B5ED1A269002A5BDB014604A8FFF7C6FD4A
:403D0000069B002B58D000251FE004F1200294F92030072B14DD91684B8833B9274B2C4A4FF48971274816F067FEFF2B06D1294B274A40F21311234816F05EFE01334B8095
:403D4000294604A8FFF7E0FE0135A3699D42DCDB04AB0FCB0CAD05E90F0094F90030072B20DDA268538833B9144B154A40F22111144816F041FE4FF6FF718B4206D1124B07
:403D80000F4A4FF491710F4816F036FE013B9BB253803BB994F90030083B0C4A52F82330204698470CAB13E90F0084E80F0003E00E21094805F036F90DB030BDE8240200D0
:403DC000782D03003C2E03001025020000490300842D0300542E0300702E030010B5022A0ED10C4691F91030042B09D101F1200289692046FFF788FE002384F8203010BDB8
:403E00002321024805F00EF910BD00BF802E030010B404468B68002A01DAD9880A44002A02DBD9888A4207DB002323606360A360E3600123237005E09B6803EB02120FCAC7
:403E400084E80F00204610BC704700BF30B589B00C464FF0FF3204A8FFF7DAFF9DF91030072B14DD069A538833B9214B214A4FF48971214816F0C0FDFF2B06D11F4B1D4A52
:403E800040F213111C4816F0B7FD0133538008AB13E90F008DE80F0094F90030072B20DDA268538833B9124B154A40F22111124816F0A2FD4FF6FF718B4206D1114B104A5A
:403EC0004FF491710C4816F097FD013B9BB253803BB994F90030083B0B4A52F82330204698479DE80F0084E80F0009B030BD00BFE8240200842D03003C2E0300542E0300E0
:403F0000782D030010250200004903002DE9F04190B007460D469046444A01460CA803F03DFE0E9B002B57D000241DE01CB140490CA804F02DF804AE224629463046FFF76E
:403F400067FF002302933B4B0193009643462A46394608A804F02EFF08A90CA803F0DEFF08A803F047FE0134AB68DB889C42DDDB0CAC3149204604F00BF808AE94E80F00FC
:403F800086E80F0095F90030072B20DDAA68538833B92A4B2A4A40F221112A4816F02CFD4FF6FF718B4206D1274B254A4FF49171244816F021FD013B9BB253803BB995F9E3
:403FC0000030083B214A52F823302846984708AB0FCB85E80F0026E095F90030072B20DDAA68538833B9154B154A40F22111154816F002FD4FF6FF718B4206D1124B104A8F
:404000004FF491710F4816F0F7FC013B9BB253803BB995F90030083B0C4A52F823302846984701232B7010B0BDE8F081A42E0300A82E0300AC2E0300B42E0300E824020047
:40404000782D03003C2E0300102502000049030030B589B00C46002204A8FFF7D9FE9DF91030072B14DD069A538833B9204B214A4FF48971204816F0BFFCFF2B06D11F4B96
:404080001C4A40F213111C4816F0B6FC0133538008AB13E90F008DE80F0094F90030072B20DDA268538833B9114B154A40F22111114816F0A1FC4FF6FF718B4206D1114B52
:4040C0000F4A4FF491710C4816F096FC013B9BB253803BB994F90030083B0B4A52F82330204698479DE80F0084E80F0009B030BDE8240200842D03003C2E0300542E030046
:40410000782D0300102502000049030070B50E468568EB88A9888B4203D30631FFF7E6FC58B9AB68EC88621CEA8003EB041496E80F0084E80F00002070BD012070BD00BFB0
:4041400070B588B00C46154691F90030072B46D101466846FFF79AFB029E002E00F03B812A0104F11001B06816F0E4FC012303E01A010021A1540133AB42F9DDF5809DE8E0
:404180000F0008AD05E90F0094F90030072B20DDA268538833B9914B914A40F22111914816F02AFC4FF6FF718B4206D18E4B8C4A4FF491718B4816F01FFC013B9BB25380C4
:4041C0003BB994F90030083B884A52F823302046984708AB13E90F0084E80F00FBE0012A50D191F91030042B4CD18A696846FFF70FFE9DF90030072B14DD029A538833B9B1
:40420000764B7B4A4FF48971764816F0F5FBFF2B06D1784B764A40F21311724816F0ECFB013353809DE80F0008AD05E90F0094F90030072B20DDA268538833B9674B684A18
:4042400040F22111674816F0D7FB4FF6FF718B4206D1654B624A4FF49171624816F0CCFB013B9BB253803BB994F90030083B5F4A52F823302046984708AB13E90F0084E8DD
:404280000F00A8E0022D40F0A28094F91030042B40F09D8094F92030042B40F09880A368DE88A369002B00DA3344002B67DBF61AA36A9E42A8BF1E46002E60DB32460146F3
:4042C0006846FFF7E3FA029B002B00F08480002523E0A2692A44214604A8FFF799FD9DF91030072B14DD069A538833B93B4B404A4FF489713B4816F07FFBFF2B06D13D4B08
:404300003B4A40F21311374816F076FB0133538004A96846FFF7FAFE0135B542D9DB9DE80F0008AD05E90F0094F90030072B20DDA268538833B9294B294A40F221112948BC
:4043400016F05AFB4FF6FF718B4206D1264B244A4FF49171234816F04FFB013B9BB253803BB994F90030083B204A52F823302046984708AB13E90F0084E80F002BE094F93D
:404380000030072B20DDA268538833B9134B144A40F22111134816F02FFB4FF6FF718B4206D1114B0E4A4FF491710E4816F024FB013B9BB253803BB994F90030083B0B4AB0
:4043C00052F82330204698470123237003E02321094804F027FE08B070BD00BFE8240200782D03003C2E03001025020000490300842D0300542E0300802E030010B50C4648
:4044000010312046FFF782FE0023237410BD00BF10B404468968CB8833B9036043608360C3600123037008E08A68013B9BB2CB8002EB03130FCB84E80F00204610BC704749
:4044400030B589B0002A33D10C466846FFF7E0FF9DE80F0008AD05E90F0094F90030072B20DDA268538833B9144B154A40F22111144816F0C1FA4FF6FF718B4206D1124B23
:404480000F4A4FF491710F4816F0B6FA013B9BB253803BB994F90030083B0C4A52F823302046984708AB13E90F0084E80F0003E02421074804F0B6FD09B030BDE8240200BE
:4044C000782D03003C2E03001025020000490300B82E0300F0B585B004468F68FD883DB90023036043608360C3600123037012E0D7F808E09EE80F008DE80F006A1E92B251
:40450000FA8012010EF11001704616F089FB9DE80F0084E80F00204605B0F0BD30B589B0002A33D10C466846FFF7D4FF9DE80F0008AD05E90F0094F90030072B20DDA26876
:40454000538833B9144B154A40F22111144816F053FA4FF6FF718B4206D1124B0F4A4FF491710F4816F048FA013B9BB253803BB994F90030083B0C4A52F823302046984728
:4045800008AB13E90F0084E80F0003E02621074804F048FD09B030BDE8240200782D03003C2E03001025020000490300E02E0300F8B5174685680C1E03DAEB881C440134AD
:4045C0003BD4A9888C4201DB611C05E0EB88994201D8013100E0002111B1FFF787FA70BBEA88944209DAAB68601C121B120103EB041103EB001016F013FBAE6806EB041681
:4046000097E80F0086E80F00EB8801339BB2EB809C4216DB013B0AE0A86819014618002242507260B260F2600122425413449C42F2DC0134EC800020F8BD0520F8BD01207C
:40464000F8BD0020F8BD00BF08B50A460021FFF7AFFF08BD10B50C4610312046FFF7F4FF0023237410BD00BF2DE9F04184B004468F68161E01DAFB881E44002E02DBFD882D
:40468000AE4207DB002323606360A360E360012323701BE0D7F808C00CEB061E9EE80F000DF1100808E90F00013DADB2FD80AE4207DA711CAA1B12010CEB0111704616F055
:4046C000AFFA04AB13E90F0084E80F00204604B0BDE8F08170B588B00C4604AD8A692846FFF7C2FF95E80F008DE80F0094F90030072B20DDA268538833B9124B124A40F27C
:404700002111124816F078F94FF6FF718B4206D10F4B0D4A4FF491710C4816F06DF9013B9BB253803BB994F90030083B094A52F82330204698479DE80F0084E80F0008B01B
:4047400070BD00BFE8240200782D03003C2E0300102502000049030070B58668B068F58800EB051526E000F1100490F90030072B1FDD8268538833B9114B124A40F221113B
:40478000114816F039F94FF6FF718B4206D10F4B0C4A4FF491710C4816F02EF9013B9BB2538033B990F90030083B094A52F8233098472046A842D6D30023F38070BD00BF0B
:4047C000E8240200782D03003C2E0300102502000049030008B50846FFF7BEFF08BD00BF70B506460D460024B268D3889C4203DAA968C888844203DBAA68D088181A70BDEB
:404800009368200189680144184406F0A5FB08B90134E9E770BD00BF2DE9F0478468E3881BB90B601360BDE8F08791468A46D4F808804746012514E0A0682E01414630443C
:4048400006F08AFB002802DAA36803EB0608A0683946304406F080FB002801DDA76837440135E3889D42E7DBCAF80080C9F80070BDE8F08770B58EB00C46002308930993D6
:404880000A930B9301238DF820300222014604A8FEF7FCFF0CAA0DA92046FFF7BDFF0D9B0BB908AB0D930C9B0BB908AB0C930D9B93F90020072A14DD9A68538833B9334B00
:4048C000334A4FF48971334816F096F8FF2B06D1314B2F4A40F213112E4816F08DF8013353800C9B93F90020072A14DD9A68538833B9264B264A4FF48971264816F07CF857
:40490000FF2B06D1244B224A40F21311214816F073F80133538004AD0D9A00212846FFF7F3F80C9A01212846FFF7EEF895E80F008DE80F0094F90030072B20DDA2685388A9
:4049400033B9124B154A40F22111124816F054F84FF6FF718B4206D1114B104A4FF491710C4816F049F8013B9BB253803BB994F90030083B0B4A52F82330204698479DE884
:404980000F0084E80F000EB070BD00BFE8240200842D03003C2E0300542E0300782D0300102502000049030030B587B00C4604AA05A92046FFF730FF059B3BBB94F900303C
:4049C000072B20DDA268538833B9344B344A40F22111344816F010F84FF6FF718B4206D1314B2F4A4FF491712E4816F005F8013B9BB253803BB994F90030083B2B4A52F8B1
:404A00002330204698470123237045E093F90020072A14DD9A68538833B9204B244A4FF48971204815F0E8FFFF2B06D1214B204A40F213111B4815F0DFFF01335380059BE7
:404A40000FCB8DE80F0094F90030072B20DDA268538833B9114B124A40F22111114815F0CBFF4FF6FF718B4206D10F4B0C4A4FF491710C4815F0C0FF013B9BB253803BB921
:404A800094F90030083B094A52F82330204698479DE80F0084E80F0007B030BDE8240200782D03003C2E03001025020000490300842D0300542E030030B587B00C4604AA13
:404AC00005A92046FFF7A8FE049B3BBB94F90030072B20DDA268538833B9344B344A40F22111344815F088FF4FF6FF718B4206D1314B2F4A4FF491712E4815F07DFF013B85
:404B00009BB253803BB994F90030083B2B4A52F82330204698470123237045E093F90020072A14DD9A68538833B9204B244A4FF48971204815F060FFFF2B06D1214B204ADE
:404B400040F213111B4815F057FF01335380049B0FCB8DE80F0094F90030072B20DDA268538833B9114B124A40F22111114815F043FF4FF6FF718B4206D10F4B0C4A4FF458
:404B800091710C4815F038FF013B9BB253803BB994F90030083B094A52F82330204698479DE80F0084E80F0007B030BDE8240200782D03003C2E0300102502000049030085
:404BC000842D0300542E030070B504469668F288FEF75CFEA5684DB3F2881201B168A86815F0A8FFF088E880AB6803EB00101BE003F1100193F90020072A14DD9A6853883B
:404C000033B90B4B0B4A4FF489710B4815F0F4FEFF2B06D1094B074A40F21311064815F0EBFE013353800B468342E1D3204670BDE8240200842D03003C2E0300542E030006
:404C400010B584B00C460A4601466846FFF7BCFF94F90030072B20DDA268538833B9124B124A40F22111124815F0C6FE4FF6FF718B4206D10F4B0D4A4FF491710C4815F04E
:404C8000BBFE013B9BB253803BB994F90030083B094A52F823302046984704AB13E90F0084E80F0004B010BDE8240200782D03003C2E0300102502000049030000B583B072
:404CC000064A074B19681B23009302F118038432044803F0F5FE03B05DF804FB782D0300B4150020082F030038B50C468B68DB885D0891F90030072B20DD8A68538833B95C
:404D0000104B114A40F22111104815F075FE4FF6FF718B4206D10E4B0B4A4FF491710B4815F06AFE013B9BB253803BB994F90030083B084A52F8233020469847042323703F
:404D4000A56038BDE8240200102F03003C2E0300102502000049030070B58CB00E468B68DA885208014608A8FEF790FDB36800939A680192DD8802EB0515029505AB9DE8A1
:404D8000070083E807001FE004F120030693214608A8FFF7BBF994F90030072B14DDA268538833B9224B234A4FF48971224815F023FEFF2B06D1214B1E4A40F213111E4820
:404DC00015F01AFE01335380069CAC42DCD30CAB13E90F008DE80F0096F90030072B20DDB268538833B9124B154A40F22111124815F002FE4FF6FF718B4206D1114B104AAD
:404E00004FF491710C4815F0F7FD013B9BB253803BB996F90030083B0B4A52F82330304698479DE80F0086E80F000CB070BD00BFE82402001C2F03003C2E0300542E030040
:404E4000102F03001025020000490300F0B58DB00F468B68DA885208014608A8FEF716FDBB6800939A680192DE8802EB0616029605AB9DE8070083E8070021E004F120036F
:404E8000069304F11005294608A8FFF73FF994F91030072B14DDA269538833B9224B234A4FF48971224815F0A7FDFF2B06D1214B1E4A40F213111E4815F09EFD01335380DE
:404EC000069CB442DAD30CAB13E90F008DE80F0097F90030072B20DDBA68538833B9124B154A40F22111124815F086FD4FF6FF718B4206D1114B104A4FF491710C4815F0A0
:404F00007BFD013B9BB253803BB997F90030083B0B4A52F82330384698479DE80F0087E80F000DB0F0BD00BFE82402001C2F03003C2E0300542E0300102F03001025020055
:404F40000049030010B50C468B68DB885B0827D091F90030072B20DD8A68538833B9244B244A40F22111244815F046FD4FF6FF718B4206D1214B1F4A4FF491711E4815F0A9
:404F80003BFD013B9BB253803BB994F90030083B1B4A52F82330204698470223237010BD91F90030072B20DD8A68538833B9104B104A40F22111104815F01EFD4FF6FF71B5
:404FC0008B4206D10D4B0B4A4FF491710A4815F013FD013B9BB253803BB994F90030083B074A52F82330204698470323237010BDE8240200102F03003C2E030010250200B7
:40500000004903002DE9F04F95B080460F469146594A014610A802F0C1FD129B002B00F08180BB6808939A680992B3F806A002EB0A1ACDF828A00DAB08AA07CA83E8070086
:40504000012638E01EB94D4910A802F0A1FF05F120030E9308AC00260296DFF840B1CDF804B000954B463A464146204603F0A2FE214610A802F052FF204602F0BBFD4049AC
:4050800010A802F085FF05F1100304AD0296CDF804B000934B463A464146284603F08AFE95E80F0084E80F00214610A802F036FF204602F09FFD0E9D5545C3D310AC314991
:4050C000204602F065FF08AD94E80F0085E80F0097F90030072B20DDBA68538833B92A4B2A4A40F221112A4815F086FC4FF6FF718B4206D1274B254A4FF49171244815F02A
:405100007BFC013B9BB253803BB997F90030083B214A52F823303846984708AB0FCB87E80F0026E097F90030072B20DDBA68538833B9154B154A40F22111154815F05CFC7A
:405140004FF6FF718B4206D1124B104A4FF491710F4815F051FC013B9BB253803BB997F90030083B0C4A52F823303846984701233B7015B0BDE8F08FA02F0300A82E03002B
:40518000A42F0300A82F0300E8240200102F03003C2E03001025020000490300AC2E030030B587B00D468A68009293680193D48803EB041402949DE8070006AB03E9070078
:4051C00008E000F12003049305F11001103005F0C3FE20B10498A042F3D3002300E001233BB395F90030072B20DDAA68538833B9244B254A40F22111244815F0FDFB4FF63F
:40520000FF718B4206D1224B1F4A4FF491711F4815F0F2FB013B9BB253803BB995F90030083B1C4A52F823302846984703232B7026E095F90030072B20DDAA68538833B9B8
:40524000104B114A40F22111104815F0D5FB4FF6FF718B4206D10E4B0B4A4FF491710B4815F0CAFB013B9BB253803BB995F90030083B084A52F823302846984702232B7031
:4052800007B030BDE8240200102F03003C2E0300102502000049030070B588B00D468A68009293680193D68803EB061602969DE8070008AB03E9070023E004F12003069361
:4052C00005F1100104F1100005F046FEC8B994F90030072B19DDA268538833B9374B384A4FF48971374815F087FBFF2B06D1364B334A40F21311334815F07EFB0133538096
:4053000003E0069CB442D8D300246CB394E80F008DE80F0095F90030072B20DDAA68538833B9264B294A40F22111264815F064FB4FF6FF718B4206D1254B244A4FF4917199
:40534000204815F059FB013B9BB253803BB995F90030083B1F4A52F82330284698479DE80F0085E80F0026E095F90030072B20DDAA68538833B9114B144A40F22111114875
:4053800015F03AFB4FF6FF718B4206D1104B0F4A4FF491710B4815F02FFB013B9BB253803BB995F90030083B0A4A52F823302846984701232B7008B070BD00BFE8240200DF
:4053C0001C2F03003C2E0300542E0300102F0300102502000049030070B5044616460023036043608360C3600D2303700C20FDF73DFCA0B105467001FDF738FC18B928463E
:40540000FDF78EFD0BE001226A8048222A7041226A707600AE800022EA80A860A560204670BD00BF70B588B00C4604AD002201462846FFF7D1FF95E80F008DE80F0094F98B
:405440000030072B20DDA268538833B9114B124A40F22111114815F0CFFA4FF6FF718B4206D10F4B0C4A4FF491710C4815F0C4FA013B9BB253803BB994F90030083B094AB1
:4054800052F82330204698479DE80F0084E80F0008B070BDE8240200102F03003C2E0300102502000049030008B5FEF7CBFA08BD70B50E4683689C68DD8804EB051505E0DF
:4054C0003146204605F048FD20B12034AC42F7D3002070BD204670BD10B50C4610312046FFF7E6FF38B394F90030072B20DDA268538833B9244B254A40F22111244815F0E4
:405500007BFA4FF6FF718B4206D1224B1F4A4FF491711F4815F070FA013B9BB253803BB994F90030083B1C4A52F82330204698470323237010BD94F90030072B20DDA26898
:40554000538833B9104B114A40F22111104815F053FA4FF6FF718B4206D10E4B0B4A4FF491710B4815F048FA013B9BB253803BB994F90030083B084A52F823302046984736
:405580000223237010BD00BFE8240200102F03003C2E03001025020000490300F8B507460E461546FFF784FF60B931463846FEF7ADFD034600285AD129463846FEF7A6FD77
:4055C000034654E0044690F90030072B1FDD8268538833B9274B284A40F22111274815F00BFA4FF6FF718B4206D1254B224A4FF49171224815F000FA013B9BB2538033B960
:4056000090F90030083B1F4A52F82330984796E80F0084E80F0004F1100094F91030072B1FDD8268538833B9124B134A40F22111124815F0E1F94FF6FF718B4206D1104BC5
:405640000D4A4FF491710D4815F0D6F9013B9BB2538033B994F91030083B0A4A52F823309847103495E80F0084E80F0000231846F8BD00BFE8240200102F03003C2E030040
:405680001025020000490300F0B587B00F468B6900939A680192DE8802EB061602969DE8070006AB03E907003BE004F12003049304F110052A4621463846FFF76FFF94F9C9
:4056C0000030072B14DDA268538833B9174B184A4FF48971174815F08FF9FF2B06D1164B134A40F21311134815F086F90133538094F91030072B14DDAA68538833B90B4B7F
:405700000B4A4FF489710B4815F076F9FF2B06D1094B074A40F21311064815F06DF901335380049CB442C0D307B0F0BDE82402001C2F03003C2E0300542E0300022A0CD170
:4057400010B50C4601F1200210312046FFF726FF0023237484F8203010BD704710B5044608461146FFF7A4FE20B110300FC884E80F0006E0002323606360A360E3600123CA
:405780002370204610BD00BF012A50D130B589B00C4601F1100204A8FFF7E0FF9DF91030072B14DD069A538833B9214B214A4FF48971214815F020F9FF2B06D11F4B1D4A56
:4057C00040F213111C4815F017F90133538008AB13E90F008DE80F0094F90030072B20DDA268538833B9124B154A40F22111124815F002F94FF6FF718B4206D1114B104A4B
:405800004FF491710C4815F0F7F8013B9BB253803BB994F90030083B0B4A52F82330204698479DE80F0084E80F0009B030BD7047E82402001C2F03003C2E0300542E03009A
:40584000102F03001025020000490300F0B585B005460F4611463846FFF72AFE38B900232B606B60AB60EB6001232B703BE0064690F90030072B1FDD8268538833B91B4B12
:405880001B4A40F221111B4815F0B6F84FF6FF718B4206D1184B164A4FF49171154815F0ABF8013B9BB2538033B990F90030083B124A52F82330984706F110030FCB8DE82E
:4058C0000F00BA68D388023B9BB2D380926802EB0312921B06F12001304615F0A1F99DE80F0085E80F00284605B0F0BDE8240200102F03003C2E0300102502000049030049
:4059000070B588B00C4604AD01F110022846FFF79DFF95E80F008DE80F0094F90030072B20DDA268538833B9114B124A40F22111114815F061F84FF6FF718B4206D10F4BB0
:405940000C4A4FF491710C4815F056F8013B9BB253803BB994F90030083B094A52F82330204698479DE80F0084E80F0008B070BDE8240200102F03003C2E03001025020078
:405980000049030008B5FEF7E7FE08BD08B50846FFF7F8FF08BD00BFF8B58368DC888A68D288944219D10F4606469C6800250DE021463846FFF77CFD014680B1103104F102
:4059C000100005F0C9FA60B901352034B368DB88B5EB530FECDB0020F8BD0120F8BD0120F8BD0120F8BD00BF70B5044615469368DA885208FFF7F0FCA6685EB3AD68EA88D6
:405A00001201A968B06815F095F8EB88F380AB68E88803EB00101BE003F1100193F90020072A14DD9A68538833B90B4B0B4A4FF489710B4814F0E0FFFF2B06D1094B074AD6
:405A400040F21311064814F0D7FF013353800B468342E1D3204670BDE82402001C2F03003C2E0300542E0300F0B58DB00F460A46014608A8FFF7B8FFBB6900939A6801927F
:405A8000DE8802EB0616029605AB9DE8070083E807003BE004F12003069304F110052A46214608A8FFF77AFD94F90030072B14DDA268538833B92F4B2F4A4FF489712F480F
:405AC00014F09AFFFF2B06D12D4B2B4A40F213112A4814F091FF0133538094F91030072B14DDAA68538833B9224B234A4FF48971224814F081FFFF2B06D1214B1E4A40F2E3
:405B000013111E4814F078FF01335380069CB442C0D30CAB13E90F008DE80F0097F90030072B20DDBA68538833B9124B154A40F22111124814F060FF4FF6FF718B4206D1DA
:405B4000114B104A4FF491710C4814F055FF013B9BB253803BB997F90030083B0B4A52F82330384698479DE80F0087E80F000DB0F0BD00BFE82402001C2F03003C2E0300D8
:405B8000542E0300102F0300102502000049030070B588B00C4604AD0A4601462846FFF723FF95E80F008DE80F0094F90030072B20DDA268538833B9114B124A40F2211135
:405BC000114814F019FF4FF6FF718B4206D10F4B0C4A4FF491710C4814F00EFF013B9BB253803BB994F90030083B094A52F82330204698479DE80F0084E80F0008B070BD04
:405C0000E8240200102F03003C2E0300102502000049030000B583B0064A074B19681423009302F118036832044802F049FF03B05DF804FB102F0300B4150020AC2F030011
:405C400008B590F90030042B02D0052B04D008E0806814F01BFA08BD00F10801D1E9000108BD0020002108BD10B50C4601F11000FFF7E6FF0FF0FEF905232370C4E9020126
:405C800010BD00BF10B50C4601F11000FFF7D8FF0FF0C0F905232370C4E9020110BD00BF10B50C4601F11000FFF7CAFF10F014F805232370C4E9020110BD00BF10B50C46D1
:405CC00001F11000FFF7BCFF0FF0A2FF05232370C4E9020110BD00BF10B50C4601F11000FFF7AEFF0FF04EF905232370C4E9020110BD00BF0000000010B50C4601F1100048
:405D0000FFF79EFF0FF0EAFC05A3D3E9002314F04DFB05232370C4E9020110BDAFF30080EF39FAFE422EE63F10B50C4601F11000FFF786FF0FF0D2FC05232370C4E902013D
:405D400010BD00BF10B50C4601F11000FFF778FF0FF044FD05232370C4E9020110BD00BF38B50C4691F92030042B02D0052B02D007E08D6A06E0D1E90A0114F09DFC05464D
:405D800000E0002504F11000FFF75AFF2A460EF023FE05232370C4E9020138BDD0B50C4601F11000FFF74CFF06460F4604F12000FFF746FF02460B46304639460FF034FCD3
:405DC00005232370C4E90201D0BD00BF10B50C4601F11000FFF734FF0FF0AAFB05232370C4E9020110BD00BF10B50C4601F11000FFF726FF0EF02CFA05232370C4E902014C
:405E000010BD00BF10B50C4601F11000FFF718FF0DF05AFE05232370C4E9020110BD00BF10B50C4601F11000FFF70AFF0FF01CFB05232370C4E9020110BD00BF10B50C4628
:405E400001F11000FFF7FCFE0DF0F6FD05232370C4E9020110BD00BF10B50C4601F11000FFF7EEFE0DF01CFD05232370C4E9020110BD00BF10B50C4601F11000FFF7E0FE54
:405E80000FF078FA05232370C4E9020110BD00BFD0B50C4601F11000FFF7D2FE06460F4604F12000FFF7CCFE02460B46304639460FF05EFA05232370C4E90201D0BD00BFC9
:405EC00010B50C4601F11000FFF7BAFE0DF048FB05232370C4E9020110BD00BF10B50C4601F11000FFF7ACFE0DF08EFA05232370C4E9020110BD00BF10B50C4601F1100056
:405F0000FFF79EFE0FF0DCF905232370C4E9020110BD00BF10B50C4601F11000FFF790FE0FF07AF905232370C4E9020110BD00BF10B50C4601F11000FFF782FE0FF014F963
:405F400005232370C4E9020110BD00BF00B583B0064A074B19681723009313465C32054802F0AEFD03B05DF804FB00BFB42F0300B415002040300300704700BF1F2909DCD6
:405F8000002901DB8840704711F11F0F04DB49420841704700207047002070478B68002B01DA5B428B607047704700BF70B50C468E68CD68002200233046294614F03EFB5E
:405FC00020B1324605F10043C4E9022370BD00BF38B50C468B68DD4391F90030072B20DD8A68538833B9114B114A40F22111114814F002FD4FF6FF718B4206D10E4B0C4AEE
:406000004FF491710B4814F0F7FC013B9BB253803BB994F90030083B084A52F823302046984704232370A56038BD00BFE8240200483003003C2E0300102502000049030061
:4060400038B50C468B685D4291F90030072B20DD8A68538833B9114B114A40F22111114814F0CAFC4FF6FF718B4206D10E4B0C4A4FF491710B4814F0BFFC013B9BB25380B4
:406080003BB994F90030083B084A52F823302046984704232370A56038BD00BFE8240200483003003C2E0300102502000049030038B50C468B698A6892FBF3F103FB112502
:4060C00094F90020072A20DDA268538833B9114B114A40F22111114814F08EFC4FF6FF718B4206D10E4B0C4A4FF491710B4814F083FC013B9BB253803BB994F90030083B7F
:40610000084A52F823302046984704232370A56038BD00BFE8240200483003003C2E0300102502000049030038B50C468D698B681D4091F90030072B20DD8A68538833B918
:40614000104B114A40F22111104814F055FC4FF6FF718B4206D10E4B0B4A4FF491710B4814F04AFC013B9BB253803BB994F90030083B084A52F82330204698470423237031
:40618000A56038BDE8240200483003003C2E0300102502000049030038B50C468D698B681D4391F90030072B20DD8A68538833B9104B114A40F22111104814F01DFC4FF66E
:4061C000FF718B4206D10E4B0B4A4FF491710B4814F012FC013B9BB253803BB994F90030083B084A52F823302046984704232370A56038BDE8240200483003003C2E030005
:40620000102502000049030038B50C468D698B685D4091F90030072B20DD8A68538833B9104B114A40F22111104814F0E5FB4FF6FF718B4206D10E4B0B4A4FF491710B487F
:4062400014F0DAFB013B9BB253803BB994F90030083B084A52F823302046984704232370A56038BDE8240200483003003C2E03001025020000490300D0B50C46886813F0CA
:4062800005FF06460F4694F90030072B20DDA268538833B9114B124A40F22111114814F0ABFB4FF6FF718B4206D10F4B0C4A4FF491710C4814F0A0FB013B9BB253803BB9CC
:4062C00094F90030083B094A52F823302046984705232370C4E90267D0BD00BFE8240200483003003C2E0300102502000049030038B50C46D1E9020114F0DEF9054694F924
:406300000030072B20DDA268538833B9104B114A40F22111104814F06FFB4FF6FF718B4206D10E4B0B4A4FF491710B4814F064FB013B9BB253803BB994F90030083B084AA9
:4063400052F823302046984704232370A56038BDE8240200483003003C2E0300102502000049030070B50C468E68CD6805F1004591F90030072B1FDD738833B9124B134AA8
:4063800040F22111124814F037FB4FF6FF718B4206D1104B0D4A4FF491710D4814F02CFB013B9BB273803BB994F90030083B0A4A52F82330204698470523237032462B46CF
:4063C000C4E9022370BD00BFE8240200483003003C2E0300102502000049030038B50C468969A068FFF7CAFD054694F90030072B20DDA268538833B9104B114A40F221114E
:40640000104814F0F9FA4FF6FF718B4206D10E4B0B4A4FF491710B4814F0EEFA013B9BB253803BB994F90030083B084A52F823302046984704232370A56038BDE82402003C
:40644000483003003C2E0300102502000049030038B50C4689694942A068FFF78FFD054694F90030072B20DDA268538833B9114B114A40F22111114814F0BEFA4FF6FF717E
:406480008B4206D10E4B0C4A4FF491710B4814F0B3FA013B9BB253803BB994F90030083B084A52F823302046984704232370A56038BD00BFE8240200483003003C2E030053
:4064C0001025020000490300D0B50C4691F91030042B02D0052B06D008E0886913F0D6FD02460B4604E0D1E9062301E000220023D4E902010FF0F4F906460F4694F9003032
:40650000072B20DDA268538833B9114B114A40F22111114814F070FA4FF6FF718B4206D10E4B0C4A4FF491710B4814F065FA013B9BB253803BB994F90030083B084A52F88A
:4065400023302046984705232370C4E90267D0BDE8240200483003003C2E0300102502000049030070B58AB00C460023ADF824308B688DF8243004AD012309AA01462846D6
:4065800001F01EF995E80F008DE80F0094F90030072B20DDA268538833B9124B124A40F22111124814F028FA4FF6FF718B4206D10F4B0D4A4FF491710C4814F01DFA013B6F
:4065C0009BB253803BB994F90030083B094A52F82330204698479DE80F0084E80F000AB070BD00BFE8240200483003003C2E0300102502000049030070B58EB006460C4623
:40660000D1E90223CDE900231D4A10210AA814F0B9FB06AD0AAA3146284601F0BFFA02AE95E80F0086E80F0094F90030072B20DDA268538833B9134B134A40F221111348BA
:4066400014F0DAF94FF6FF718B4206D1104B0E4A4FF491710D4814F0CFF9013B9BB253803BB994F90030083B0A4A52F823302046984702AB0FCB84E80F000EB070BD00BF9F
:40668000EC300300E8240200483003003C2E0300102502000049030038B50C468B691F2B30D88968012202FA03F3194214BF1546002594F90030072B20DD0A464B8833B90E
:4066C000254B264A40F22111254814F095F94FF6FF718B4206D1234B204A4FF49171204814F08AF9013B9BB253803BB994F90030083B1D4A52F8233020469847042323709F
:40670000A56038BD91F90030072B20DD8A68538833B9114B114A40F22111114814F06CF94FF6FF718B4206D10E4B0C4A4FF491710B4814F061F9013B9BB253803BB994F905
:406740000030083B084A52F8233020469847042323700023A36038BDE8240200483003003C2E03001025020000490300F0B593B022B18A69931E222B49D800E00A220C46F9
:40678000074608AE0C960E960DF12F030D9300250F951095119564238DF8403089680CA802F03CFD0E9B1D7004AD32463946284601F0F4F995E80F008DE80F0094F9003069
:4067C000072B20DDA268538833B9124B124A40F22111124814F010F94FF6FF718B4206D10F4B0D4A4FF491710C4814F005F9013B9BB253803BB994F90030083B094A52F883
:406800002330204698479DE80F0084E80F0013B0F0BD00BFE8240200483003003C2E03001025020000490300F8B50C4691F91030042B36D18969002901DB012500E00025E8
:40684000002303E0A26802FB05F501338B42F9DB94F90030072B20DDA268538833B92B4B2B4A40F221112B4814F0C6F84FF6FF718B4206D1284B264A4FF49171254814F009
:40688000BBF8013B9BB253803BB994F90030083B224A52F823302046984704232370A560F8BD052B31D1886813F0F0FBD4E906230FF016F806460F4694F90030072B20DD83
:4068C000A268538833B9114B114A40F22111114814F092F84FF6FF718B4206D10E4B0C4A4FF491710B4814F087F8013B9BB253803BB994F90030083B084A52F823302046FD
:40690000984705232370C4E90267F8BDE8240200483003003C2E0300102502000049030000B583B0064A074B19681123009302F10C035032044802F0C3F803B05DF804FB23
:4069400048300300B4150020F030030000B583B0064A074B19680823009302F174039432044802F0ADF803B05DF804FB48300300B4150020F830030038B50C468B681B7958
:406980000BB1032500E0022594F90030072B20DDA268538833B9104B104A40F22111104814F02AF84FF6FF718B4206D10D4B0B4A4FF491710A4814F01FF8013B9BB2538084
:4069C0003BB994F90030083B074A52F8233020469847257038BD00BFE8240200003103003C2E0300102502000049030070B588B00D468B6804AC08330FCB84E80F008DE89D
:406A00000F0095F90030072B20DDAA68538833B9114B124A40F22111114813F0EDFF4FF6FF718B4206D10F4B0C4A4FF491710C4813F0E2FF013B9BB253803BB995F9003089
:406A4000083B094A52F82330284698479DE80F0085E80F0008B070BDE8240200003103003C2E0300102502000049030070B588B00D468B6804AC18330FCB84E80F008DE807
:406A80000F0095F90030072B20DDAA68538833B9114B124A40F22111114813F0ADFF4FF6FF718B4206D10F4B0C4A4FF491710C4813F0A2FF013B9BB253803BB995F9003089
:406AC000083B094A52F82330284698479DE80F0085E80F0008B070BDE8240200003103003C2E030010250200004903002DE9F04190B007460D46904600231A4601460CA874
:406B000000F05EFE0E9B002B5AD0002426E01CB140490CA801F03CFA34B9AB6804AE08330FCB86E80F0005E0AB6804AE18330FCB86E80F0000230293374B019304AB009310
:406B400043462A46394608A802F034F908A90CA801F0E4F908A801F04DF80134012CD6DD08AC10AB13E90F0084E80F0095F90030072B20DDAA68538833B9284B284A40F2CE
:406B80002111284813F038FF4FF6FF718B4206D1254B234A4FF49171224813F02DFF013B9BB253803BB995F90030083B1F4A52F823302846984708AB0FCB85E80F0026E032
:406BC00095F90030072B20DDAA68538833B9134B134A40F22111134813F00EFF4FF6FF718B4206D1104B0E4A4FF491710D4813F003FF013B9BB253803BB995F90030083B49
:406C00000A4A52F823302846984701232B7010B0BDE8F08130310300AC2E0300E8240200003103003C2E0300102502000049030030B58DB00C4691F9001007293ED104F1CC
:406C4000100304AD0394012102913F4901910093134622460146284602F0ACF895E80F000CAD05E90F0094F90030072B20DDA268538833B9354B364A40F22111354813F068
:406C8000BBFE4FF6FF718B4206D1334B304A4FF49171304813F0B0FE013B9BB253803BB994F90030083B2D4A52F82330204698470CAB13E90F0084E80F0043E0A06804F156
:406CC00010052946083004F047F90028D4BF012000200DDCA1681831284604F03DF9A3681B790BB1C00F03E00028CCBF0020012008B1032500E0022594F90030072B20DD00
:406D0000A268538833B9114B114A40F22111114813F072FE4FF6FF718B4206D10E4B0C4A4FF491710B4813F067FE013B9BB253803BB994F90030083B084A52F823302046EE
:406D4000984725700DB030BD34310300E8240200003103003C2E03001025020000490300F8B5054617461E460023036043608360C3600C2303702820FBF778FFA86098B1CF
:406D80000446012343805223037041234370069B037100F1080E97E80F008EE80F00183496E80F0084E80F002846F8BD38B50446826892F90830072B21DD02F10800816805
:406DC0004B8833B9234B244A40F22111234813F013FE4FF6FF75AB4206D1214B1E4A4FF491711E4813F008FE013B9BB24B8033B992F90830083B1B4A52F823309847A268DF
:406E000002F1180092F91830072B1FDD81684B8833B9104B104A40F22111104813F0ECFD4FF6FF75AB4206D10D4B0B4A4FF491710A4813F0E1FD013B9BB24B8033B992F9D4
:406E40001830083B074A52F823309847A068FCF767F838BDE8240200003103003C2E0300102502000049030010B504468068083004F008F9A068183004F004F910BD00BF48
:406E800038B504460D46806889680831083004F063F860B9A068A9681831183004F05CF830B9AB681B79A2681079181A38BD38BD38BD00BF00B583B0064A074B196806237D
:406EC000009302F10C032432044801F0F9FD03B05DF804FB00310300B415002040310300002304E0054AD25C824204D00133062BF8D9002070470120704700BF48310300A0
:406F000070B4024608B1467800E0002600254FF0FF301CE01378012B0DD106E0D418247A8C4200D1E818013300E00023B2F90240A342F3DB07E0137A994204DB547AA1427F
:406F400001DC6818C01AB2F902301D445268002AE0D136B1002802DA6FF0004001E04FF0FF3070BC704700BF30B400241BE0B0F9025063198B4209DD091B0378012B02D1C1
:406F80000144087A13E0007A084410E0426842B90378012B03D1013D2844007A07E0407A05E01C4610460028E1D14FF0FF3030BC704700BF10B503E04468FBF7B1FF2046D9
:406FC0000028F9D110BD00BF2DE9F84F8B689E689D8842B1012D0ADD33785E2B0BD04FF00009C8460AE04FF00009C84606E04FF00009C84602E04FF00109C846002752E01D
:4070000009F10203AB421FDA4C4609F10103F35C2D2B19D10A20FBF729FE824688B10223037080F80180E218B35C16F809105B1A013343800023436016F809300372B35C48
:40704000437209F1030422E009F1010407E0A31CAB4203DA631CF35C2D2B02D00134AC42F5DBC9EB040B0BF10800FBF7FFFD824668B10123037080F80180A0F802B000236B
:4070800043605A4606EB0901083013F053FD47B13A4600E01A465368002BFBD1C2F804A000E05746A146A945AADB3846BDE8F88F2DE9F04F83B0022A09D104468B4691F98B
:4070C00010300B2B03D191F920300B2B06D00E21264801F0A7FF4FF0FF3043E001221031FFF772FF019000283BD000220BF120012046FFF769FF8046DBF808309D689F880C
:407100000024A2461BE02E19295D0198FFF7F8FE011E13DBB8F1000F0AD1611C3A1B2944304613F07DFD013F013C4FF0010A05E04046FFF719FF30704FF0010A0134A742DC
:40714000E1DC0198FFF736FF4046FFF733FFDBF808309F80DBF808309B680022DA55504600E0002003B0BDE8F08F00BF702E03002DE9F84F0C46022A0CD191F91030042BD9
:4071800008D191F920300B2B04D18D6901F1200A012618E0032A10D194F91030042B0CD194F92030042B08D194F930300B2B04D1A569A66A04F1300A05E00C21214801F063
:4071C00031FFBDE8F88FA3689F88DAF80820B2F80490002D00DA3D44C5EB0708464500DD4646002D03DBBD4201DC002E05DA0B21154801F017FFBDE8F88F07EB0901891B3E
:4072000001319868FBF7F0FE8346C0B105EB09007119C6EB080201325944584413F000FDDAF808304A4699680BEB050013F082FCA3684F44BE1B9E80A368C3F808B0BDE889
